:020000040800F2
:10000000000005208D190008A9180008AB18000889
:10001000AD180008AF180008B11800080000000073
:1000200000000000000000000000000071820008D5
:10003000B318000800000000118300087583000851
:10004000DD190008DD190008DD190008DD190008B8
:10005000DD190008DD190008DD190008DD190008A8
:10006000DD190008DD190008DD190008DD19000898
:10007000DD190008DD190008DD190008DD19000888
:10008000DD190008DD190008DD190008DD19000878
:10009000DD190008DD190008DD190008DD19000868
:1000A000DD190008DD190008DD190008DD19000858
:1000B000DD190008DD190008DD190008DD19000848
:1000C000DD190008DD190008DD190008DD19000838
:1000D000DD190008DD190008DD190008DD19000828
:1000E000DD190008DD190008DD190008DD19000818
:1000F000DD190008DD190008DD190008DD19000808
:10010000DD190008DD190008DD190008DD190008F7
:10011000DD190008DD190008B5180008DD19000810
:10012000DD190008DD190008DD190008DD190008D7
:10013000DD190008DD190008DD190008DD190008C7
:10014000DD190008DD190008DD190008DD190008B7
:10015000DD190008DD190008DD190008DD190008A7
:10016000DD190008DD190008DD190008DD19000897
:10017000DD190008DD190008DD1900080000000085
:10018000DD190008DD190008DD190008DD19000877
:10019000DD190008DD190008DD190008DD19000867
:1001A000C1180008DD190008CD180008DD19000885
:1001B000DD190008DD190008DD190008DD19000847
:0801C000DD190008DD1900083B
:1001D00010B5054C237833B9044B13B10448AFF381
:1001E00000800123237010BD2401002000000000C6
:1001F00014B6020808B5034B1BB103490348AFF31B
:10020000008008BD000000002801002014B602088C
:1002100001F0FF01102A2BDB10F0070F08D010F8B7
:10022000013B013A8B422DD010F0070F42B3F6D1BB
:10023000F0B441EA012141EA014122F007047FF0D4
:1002400000070023F0E80256083C85EA010586EA2B
:10025000010685FA47F5A3FA87F586FA47F6A5FA67
:1002600087F68EB9EED1F0BC01F0FF0102F0070273
:1002700032B110F8013B013A83EA010313B1F8D11E
:100280000020704701387047002D06BF35460338FF
:10029000073815F0010F07D1013015F4807F02BF38
:1002A000013015F4C03F0130F0BC0138704700BF89
:1002B00081F0004102E000BF83F0004330B54FEA17
:1002C00041044FEA430594EA050F08BF90EA020F84
:1002D0001FBF54EA000C55EA020C7FEA645C7FEA17
:1002E000655C00F0E2804FEA5454D4EB5555B8BF3A
:1002F0006D420CDD2C4480EA020281EA030382EAAB
:10030000000083EA010180EA020281EA0303362D3C
:1003100088BF30BD11F0004F4FEA01314FF4801C0F
:100320004CEA113102D0404261EB410113F0004F21
:100330004FEA03334CEA133302D0524263EB4303D8
:1003400094EA050F00F0A780A4F10104D5F1200E76
:100350000DDB02FA0EFC22FA05F2801841F10001D1
:1003600003FA0EF2801843FA05F359410EE0A5F1A5
:1003700020050EF1200E012A03FA0EFC28BF4CF0D6
:10038000020C43FA05F3C01851EBE37101F000458C
:1003900007D54FF0000EDCF1000C7EEB00006EEB99
:1003A0000101B1F5801F1BD3B1F5001F0CD3490823
:1003B0005FEA30004FEA3C0C04F101044FEA44527A
:1003C00012F5800F80F09A80BCF1004F08BF5FEA01
:1003D000500C50F1000041EB045141EA050130BDE1
:1003E0005FEA4C0C404141EB0101013C28BFB1F5F3
:1003F000801FE9D291F0000F04BF01460020B1FA3E
:1004000081F308BF2033A3F10B03B3F120020CDA10
:100410000C3208DD02F1140CC2F10C0201FA0CF0EE
:1004200021FA02F10CE002F11402D8BFC2F1200C53
:1004300001FA02F120FA0CFCDCBF41EA0C01904009
:10044000E41AA2BF01EB0451294330BD6FEA040452
:100450001F3C1CDA0C340EDC04F11404C4F120023D
:1004600020FA04F001FA02F340EA030021FA04F34F
:1004700045EA030130BDC4F10C04C4F1200220FAA6
:1004800002F001FA04F340EA0300294630BD21FAE4
:1004900004F0294630BD94F0000F83F4801306BFAA
:1004A00081F480110134013D4EE77FEA645C18BF9E
:1004B0007FEA655C29D094EA050F08BF90EA020F35
:1004C00005D054EA000C04BF1946104630BD91EA2D
:1004D000030F1EBF0021002030BD5FEA545C05D130
:1004E0004000494128BF41F0004130BD14F580046F
:1004F0003CBF01F5801130BD01F0004545F0FE41E3
:1005000041F470014FF0000030BD7FEA645C1ABF17
:10051000194610467FEA655C1CBF0B46024650EA4E
:10052000013406BF52EA033591EA030F41F400217A
:1005300030BD00BF90F0000F04BF0021704730B500
:100540004FF4806404F132044FF000054FF00001D5
:1005500050E700BF90F0000F04BF0021704730B596
:100560004FF4806404F1320410F0004548BF40426B
:100570004FF000013EE700BF42004FEAE2014FEAC0
:1005800031014FEA02701FBF12F07F4393F07F4F9B
:1005900081F06051704732F07F4208BF704793F09E
:1005A0007F4F04BF41F40021704730B54FF46074B1
:1005B00001F0004521F000411CE700BF50EA0102B4
:1005C00008BF704730B54FF000050AE050EA01025D
:1005D00008BF704730B511F0004502D5404261EBCD
:1005E00041014FF4806404F132045FEA915C3FF40E
:1005F000D8AE4FF003025FEADC0C18BF03325FEAAB
:10060000DC0C18BF033202EBDC02C2F1200300FA5B
:1006100003FC20FA02F001FA03FE40EA0E0021FA80
:1006200002F11444BDE600BF70B54FF0FF0C4CF46E
:10063000E06C1CEA11541DBF1CEA135594EA0C0F20
:1006400095EA0C0F00F0DEF82C4481EA030621EA5B
:100650004C5123EA4C5350EA013518BF52EA033596
:1006600041F4801143F4801338D0A0FB02CE4FF048
:100670000005E1FB02E506F00042E0FB03E54FF078
:100680000006E1FB03569CF0000F18BF4EF0010E70
:10069000A4F1FF04B6F5007F64F5407404D25FEA6C
:1006A0004E0E6D4146EB060642EAC62141EA55511F
:1006B0004FEAC52040EA5E504FEACE2EB4F1FD0C61
:1006C00088BFBCF5E06F1ED8BEF1004F08BF5FEADF
:1006D000500E50F1000041EB045170BD06F0004691
:1006E00046EA010140EA020081EA0301B4EB5C043E
:1006F000C2BFD4EB0C0541EA045170BD41F4801136
:100700004FF0000E013C00F3AB8014F1360FDEBF5A
:10071000002001F0004170BDC4F10004203C35DA36
:100720000C341BDC04F11404C4F1200500FA05F3B9
:1007300020FA04F001FA05F240EA020001F000425A
:1007400021F0004110EBD37021FA04F642EB0601D0
:100750005EEA430E08BF20EAD37070BDC4F10C04FA
:10076000C4F1200500FA04F320FA05F001FA04F2BE
:1007700040EA020001F0004110EBD37041F10001AA
:100780005EEA430E08BF20EAD37070BDC4F12005B5
:1007900000FA05F24EEA020E20FA04F301FA05F21D
:1007A00043EA020321FA04F001F0004121FA04F2C5
:1007B00020EA020000EBD3705EEA430E08BF20EA95
:1007C000D37070BD94F0000F0FD101F000464000CF
:1007D00041EB010111F4801F08BF013CF7D041EA51
:1007E000060195F0000F18BF704703F00046520055
:1007F00043EB030313F4801F08BF013DF7D043EA26
:100800000603704794EA0C0F0CEA135518BF95EADB
:100810000C0F0CD050EA410618BF52EA4306D1D162
:1008200081EA030101F000414FF0000070BD50EA81
:10083000410606BF1046194652EA430619D094EA0B
:100840000C0F02D150EA013613D195EA0C0F05D1F5
:1008500052EA03361CBF104619460AD181EA030149
:1008600001F0004141F0FE4141F470014FF0000001
:1008700070BD41F0FE4141F4780170BD70B54FF09C
:10088000FF0C4CF4E06C1CEA11541DBF1CEA13551C
:1008900094EA0C0F95EA0C0F00F0A7F8A4EB0504FE
:1008A00081EA030E52EA03354FEA013100F08880F5
:1008B0004FEA03334FF0805545EA131343EA1263BE
:1008C0004FEA022245EA111545EA10654FEA002673
:1008D0000EF000419D4208BF964244F1FD0404F52C
:1008E000407402D25B084FEA3202B61A65EB030588
:1008F0005B084FEA32024FF480104FF4002CB6EB45
:10090000020E75EB030E22BFB61A754640EA0C00C4
:100910005B084FEA3202B6EB020E75EB030E22BF04
:10092000B61A754640EA5C005B084FEA3202B6EB45
:10093000020E75EB030E22BFB61A754640EA9C0004
:100940005B084FEA3202B6EB020E75EB030E22BFD4
:10095000B61A754640EADC0055EA060E18D04FEA92
:10096000051545EA16754FEA06164FEAC30343EA32
:1009700052734FEAC2025FEA1C1CC0D111F4801FFF
:100980000BD141EA00014FF000004FF0004CB6E7F8
:1009900011F4801F04BF01430020B4F1FD0C88BF97
:1009A000BCF5E06F3FF6AFAEB5EB030C04BFB6EBA2
:1009B000020C5FEA500C50F1000041EB045170BD95
:1009C0000EF0004E4EEA113114EB5C04C2BFD4EBC2
:1009D0000C0541EA045170BD41F480114FF0000E46
:1009E000013C90E645EA060E8DE60CEA135594EAC2
:1009F0000C0F08BF95EA0C0F3FF43BAF94EA0C0FC5
:100A00000AD150EA01347FF434AF95EA0C0F7FF439
:100A100025AF104619462CE795EA0C0F06D152EA8D
:100A200003353FF4FDAE1046194622E750EA410671
:100A300018BF52EA43067FF4C5AE50EA41047FF482
:100A40000DAF52EA43057FF4EBAE12E74FEA4102E5
:100A5000B2F1E04324BFB3F5001CDCF1FE5C0DD91C
:100A600001F0004C4FEAC0024CEA5070B2F1004F66
:100A700040EB830008BF20F00100704711F0804F69
:100A800021D113F13872BCBF01F00040704741F42E
:100A900080114FEA5252C2F11802C2F1200C10FA32
:100AA0000CF320FA02F018BF40F001004FEAC12316
:100AB0004FEAD32303FA0CFC40EA0C0023FA02F3BA
:100AC0004FEA4303CCE77FEA625307D150EA013390
:100AD0001EBF4FF0FE4040F44000704701F0004060
:100AE00040F0FE4040F40000704700BF53B94AB9DF
:100AF000002908BF00281CBF4FF0FF314FF0FF3026
:100B000000F074B9ADF1080C6DE904CE00F006F800
:100B1000DDF804E0DDE9022304B070472DE9F04779
:100B2000089D04468E46002B4DD18A42944669D9D1
:100B3000B2FA82F252B101FA02F3C2F1200120FAB4
:100B400001F10CFA02FC41EA030E94404FEA1C4802
:100B5000210CBEFBF8F61FFA8CF708FB16E341EAFE
:100B6000034306FB07F199420AD91CEB030306F184
:100B7000FF3080F01F81994240F21C81023E6344A5
:100B80005B1AA4B2B3FBF8F008FB103344EA034449
:100B900000FB07F7A7420AD91CEB040400F1FF335E
:100BA00080F00A81A74240F207816444023840EA9B
:100BB0000640E41B00261DB1D4400023C5E90043D4
:100BC0003146BDE8F0878B4209D9002D00F0EF8057
:100BD0000026C5E9000130463146BDE8F087B3FA8A
:100BE00083F6002E4AD18B4202D3824200F2F98072
:100BF000841A61EB030301209E46002DE0D0C5E975
:100C0000004EDDE702B9FFDEB2FA82F2002A40F0C0
:100C10009280A1EB0C014FEA1C471FFA8CFE0126C3
:100C2000200CB1FBF7F307FB131140EA01410EFB67
:100C300003F0884208D91CEB010103F1FF3802D20E
:100C4000884200F2CB804346091AA4B2B1FBF7F008
:100C500007FB101144EA01440EFB00FEA64508D92B
:100C60001CEB040400F1FF3102D2A64500F2BB8068
:100C70000846A4EB0E0440EA03409CE7C6F12007B7
:100C8000B34022FA07FC4CEA030C20FA07F401FAFD
:100C900006F31C43F9404FEA1C4900FA06F3B1FB86
:100CA000F9F8200C1FFA8CFE09FB181140EA0141EB
:100CB00008FB0EF0884202FA06F20BD91CEB010188
:100CC00008F1FF3A80F08880884240F28580A8F1E0
:100CD00002086144091AA4B2B1FBF9F009FB101132
:100CE00044EA014100FB0EFE8E4508D91CEB0101D0
:100CF00000F1FF346CD28E456AD90238614440EA73
:100D00000840A0FB0294A1EB0E01A142C846A646F2
:100D100056D353D05DB1B3EB080261EB0E0101FA7B
:100D200007F722FA06F3F1401F43C5E900710026D8
:100D30003146BDE8F087C2F12003D8400CFA02FC2E
:100D400021FA03F3914001434FEA1C471FFA8CFE3E
:100D5000B3FBF7F007FB10360B0C43EA064300FB2E
:100D60000EF69E4204FA02F408D91CEB030300F1CC
:100D7000FF382FD29E422DD9023863449B1B89B283
:100D8000B3FBF7F607FB163341EA034106FB0EF30C
:100D90008B4208D91CEB010106F1FF3816D28B42B9
:100DA00014D9023E6144C91A46EA004638E72E4685
:100DB000284605E70646E3E61846F8E64B45A9D27D
:100DC000B9EB020864EB0C0E0138A3E74646EAE7EC
:100DD000204694E74046D1E7D0467BE7023B61449A
:100DE00032E7304609E76444023842E7704700BF03
:100DF0000149002008F050BC091E000808B5642015
:100E000006F048FEFBE7000010B594B01022002168
:100E100002240AA829F0FEF91422002103A829F0CF
:100E2000F9F91D4B192108A81A6C42F080521A6476
:100E30001B6C03F080530193019B184B1A6842F41A
:100E400040421A6001221B6803F440430293029B54
:100E50004FF48033CDE908234FF48003CDE90E43EE
:100E60004FF4D873CDE91244CDE9101305F0D0FD4D
:100E700005F082FA0F2300200721CDE903344FF457
:100E8000A053CDE905034FF4805303A8079305F061
:100E9000ABFF14B010BD00BF00380240007000402E
:100EA0002DE980489BB01022002101250DA84FF0AC
:100EB000104929F0AFF9002404F088F9C64B0DA8B9
:100EC000ADF834501094CDE90E9304F09DF917233A
:100ED0000DA88DF835508DF83C308DF8425004F057
:100EE00093F9042004F080F9BFF34F8FBFF36F8FA5
:100EF000BA4AC2F85042BFF34F8FBFF36F8F5369A6
:100F000043F400335361BFF34F8FBFF36F8FC2F8C9
:100F10008440BFF34F8FD2F8803043F6E074C3F3C0
:100F2000C900C3F34E335B0103EA0406014646EAF7
:100F300081750139C2F86052F9D2203B13F1200FBC
:100F4000F2D1BFF34F8F536943F480335361BFF342
:100F50004F8FBFF36F8F04F09DF80024FFF754FF0D
:100F6000142200210DA829F055F99D4B10219D4810
:100F70001A6B01274FF010084FF0030B42F01002DC
:100F80004FF4805A984D4FF004091A631A6B974E2C
:100F900002F010020292029A1A6B42F002021A63E5
:100FA0001A6B02F002020392039A1A6B42F00102DA
:100FB0001A631A6B02F001020492049A1A6B42F04F
:100FC00040021A631A6B02F040020592059A1A6BEE
:100FD00042F400721A631A6B02F400720692069AC7
:100FE0001A6B42F008021A631A6B02F008020792A9
:100FF000079A1A6B42F480621A631A6B02F48062D9
:101000000892089A1A6B42F020021A631A6B02F0D7
:1010100020020992099A1A6B42F480721A631A6BC1
:1010200002F480720A920A9A1A6B42F080021A63E2
:101030001A6B02F080020B920B9A1A6B42F00402B8
:101040001A6300221B6B03F004030C930C9B04F047
:101050002FFC01220821664804F02AFC01224FF4EB
:101060008051644804F024FC0022C021624804F04E
:101070001FFC00224021614804F01AFC0DA95948C8
:10108000CDE90D87CDE90F4B04F08CFA08230DA9AB
:101090005748CDE90D37CDE90F4404F083FA0DA987
:1010A0005448CDE90DA7CDE90F4404F07BFAC022E6
:1010B0000DA95148CDE90D27CDE90F4B04F072FA87
:1010C00040220DA94D48CDE90D27CDE90F4B04F085
:1010D00069FA4B484B49848001600762C0E90544C6
:1010E00004F0BEF848492846C5E90A44C5E90C445D
:1010F000C5E90014C5E9024404F054F9394628460C
:10110000424D04F007FA40234FF4C0724049304684
:10111000B460F461B462C6E905324FF40062C6E916
:10112000082A4FF0020A0722C6E900140DA9CDF8DB
:101130004CA0C6E90398CDE90DA2CDE90F92CDE907
:1011400011BA06F0A7F929464FF6FF72304601940E
:10115000C5E90078C5E9027406F0BCF9384603F029
:10116000BDFF29464FF6FF723046C5E900A8C5E924
:10117000027406F0AFF9082329464FF6FF72304695
:10118000C5E900B8C5E9023406F0A4F94FF40C73C0
:101190004FF6FF72294601933046019BAF60EB602A
:1011A000C5E9009806F096F940F22B713046194DCA
:1011B00006F0AFF94FF0204343F2D202284640F246
:1011C00015261A60144B154A2C62C5E90023C5E99F
:1011D0000247C5E9044423E01B00000300ED00E0E2
:1011E00000380240000402407C010020FC02002084
:1011F000002802400020024000080240001802407F
:10120000580100200030024000B0024040010020A0
:10121000400100A0BC01002068474020005C004065
:10122000C5E9064404F0E3FC2146284604F0BCFE70
:10123000214628463D4D04F0DDFE342221460DEBCB
:10124000020028F0E7FF3A4B2821352040F2352CE8
:10125000AC862C6185F83640C5E900340923C5E920
:1012600005130B23C5E9070340F21B132846C5E904
:10127000096340F21D13C5E90244C5E90BC304F03C
:1012800065FFFF214FF4806E4FF4F0724FF48873C6
:1012900028460D941893ADF864408DF86640CDE96A
:1012A00012140521CDE914E14FF04041CDE90E249F
:1012B000CDE9161222460DA9CDE9103A05F011F834
:1012C0001C481D4B0462C0E90037C0E902984FF486
:1012D000A0634FF01808C0E90644C0E9048305F094
:1012E0005BF903F055FD03F099FC5C2003F05AFF15
:1012F00000F04AFB00F073FB06F03CFB0F4A21466E
:101300000F4806F071FB0F4B0F4A214618600F483B
:1013100006F06AFB0E4B0F4A214618600E4806F095
:1013200063FB0E4B186006F03FFBFEE7080200204F
:1013300000680140B0020020001000A0B8B602080A
:10134000FD0D00085401002094B60208E3190008BE
:1013500050010020DCB602081D32000830030020D6
:101360000268034B9A4201D103F0A6BE704700BF4A
:1013700000100040704700000D4B82B00F216FF04D
:1013800001001A6C42F080521A641A6C02F080520A
:101390000092009A5A6C42F480425A6400225B6CBC
:1013A00003F480430193019B02B003F0BBBE00BF76
:1013B00000380240026882B0084B9A420BD1D3F841
:1013C000302803F5006342F480521A631B6B03F468
:1013D00080530193019B02B0704700BF0030024070
:1013E0000E4B07B502689A4215D1A3F5F0430521CB
:1013F0005A201A6B42F400021A6300221B6B03F49A
:1014000000030193019B03F08DFE5A2003B05DF8A9
:1014100004EB03F0B9BE03B05DF804FB00B002407A
:1014200010B5A8B004461422002102A828F0F2FE4C
:101430008422002107A828F0EDFE2268174B9A426B
:101440002AD14FF4803307A8079305F09BFD08B11C
:10145000FFF790FF124C4FF4C07201211148236B2B
:1014600043F080032363236B03F080030093009B0E
:101470001223CDE902230323CDE90413042302A997
:10148000069304F08FF8236C43F400032364236C69
:1014900003F400030193019B28B010BD005C0040E1
:1014A00000380240001C0240026808B5094B9A420D
:1014B0000FD1094A80210948136C23F400031364F7
:1014C00004F054F94FF480710448BDE8084004F07A
:1014D0004DB908BD005C004000380240001C0240CD
:1014E00070B5ACB004461422002106A828F092FE84
:1014F000842200210BA828F08DFE2268484B9A42D6
:1015000040F08C800823052001240B934FF4C07316
:1015100010930223CDE911304FF400330BA8CDE92D
:10152000154305F02FFD08B1FFF724FF3D4B0024C4
:1015300002250E265A6C06A93B4842F080625A6486
:101540005A6C02F080620092009A1A6B42F010020C
:101550001A631A6B02F010020192019A1A6B42F49C
:1015600000721A631A6B02F400720292029A1A6BEA
:1015700042F480621A631A6B02F480620392039A47
:101580001A6B42F040021A631A6B02F04002049296
:10159000049A1A6B42F480721A631B6B03F4807313
:1015A0000593059B1023CDE90635CDE908440A963D
:1015B00003F0F8FF4EF6FF7306A91C480A96CDE922
:1015C0000635CDE9084403F0EDFFF72306A91848D6
:1015D0000A96CDE90635CDE9084403F0E3FF4FF460
:1015E000805306A91348CDE906350923CDE90844FF
:1015F0000A9303F0D7FF4FF4464306A90E480A9614
:10160000CDE90635CDE9084403F0CCFF5820224649
:10161000052103F087FD582003F0B6FD2CB070BD06
:1016200000680140003802400010024000240240DF
:10163000002802400018024000200240142200212D
:101640002DE9F0418AB004460DEB020028F0E2FDDE
:1016500022682C4B9A4251D12B4B02250324092698
:101660009A6B4FF0040805A9284842F002020027AF
:101670009A639A6B02F002020192019A1A6B42F08D
:1016800010021A631A6B02F010020292029A1A6B8D
:1016900042F002021A631A6B02F002020392039AEA
:1016A0001A6B42F008021A631B6B03F008030493E1
:1016B000049BCDE90585CDE9084603F073FF40237F
:1016C00005A91348CDE905350A23CDE90774099327
:1016D00003F068FF05A90E480996CDE90585CDE917
:1016E000077403F05FFF4FF4605305A9094809969A
:1016F000CDE90535CDE9077403F054FF0AB0BDE824
:10170000F08100BF001000A000380240001002402D
:1017100000040240000C0240026808B50B4B9A42DC
:1017200013D10B4A04210B48936B23F002039363FC
:1017300004F01CF84421084804F018F84FF46051F4
:101740000648BDE8084004F011B808BD001000A02C
:10175000003802400010024000040240000C024029
:10176000F0B5002387B00393294B1E68002E4DD19E
:101770000122022703250C241A6001A9254B2648C3
:101780009A6B42F001029A639B6B03F00103009392
:10179000009B4FF68373CDE90454CDE9013703F084
:1017A00001FF48F2331301A91C480594CDE9013724
:1017B000CDE9036503F0F6FE4CF2037301A9184866
:1017C0000594CDE90137CDE9036503F0EBFE4FF653
:1017D0003F0301A913480594CDE90137CDE903651D
:1017E00003F0E0FE282301A90F480594CDE9013755
:1017F000CDE9036503F0D6FE082301A90B48059443
:10180000CDE90137CDE9036503F0CCFE07B0F0BDAB
:10181000340300200038024000100240001802404B
:10182000000C024000140240001C0240000802406C
:1018300010B5014688B00022362003F073FC362034
:1018400003F0A2FC144B01A903A81A6C134C42F03C
:1018500010021A641B6C03F010030293029B05F044
:1018600073FB05F061FB0E4B4000236040F2E73351
:10187000E3600C4BB0FBF3F00138002360602046BE
:101880002361A36005F0B6FF20B9204605F05AFE9B
:1018900008B010BD0120FBE70038024038030020EB
:1018A0000010004040420F007047FEE7FEE7FEE7F1
:1018B000FEE77047014805F087BE00BF38030020EF
:1018C000014804F0B1BC00BF08020020014803F049
:1018D00097BD00BF7C0100200120704708B528F0AB
:1018E0003BFC162303604FF0FF3008BD08B528F01D
:1018F00033FC16230360FEE770B50D4614460E4612
:10190000731B9C4201DC204670BDAFF3008006F8DB
:10191000010BF5E770B50D4614460E46731B9C424D
:1019200001DC204670BD16F8010BAFF30080F5E72F
:101930004FF0FF3070474FF4005300204B6070476A
:1019400001207047002070470B4A0346116810B50C
:1019500009B90A491160106809490A4C0344091B76
:101960008B4206D928F0F8FB0C2303604FF0FF30C0
:1019700010BD1360FCE700BF84030020707A0120D3
:1019800000000520000A000070470000DFF834D096
:10199000002103E00C4B5B58435004310B480C4BC7
:1019A00042189A42F6D30B4A02E0002342F8043B65
:1019B000094B9A42F9D303F083FA28F0E5FBFFF7CD
:1019C0006FFA704700000520F803030800000020AC
:1019D0002401002024010020707A0120FEE701F09C
:1019E00079B801F0E9B8406870474160704700007D
:1019F0004FF0E022D2F8FC3D43F08073C2F8FC3D8A
:101A0000054B064AD3F8B01F0A43C3F8B02F1A6833
:101A100042F001021A607047001000E055CEACC5DC
:101A2000511A01EB5301B1FBF3F07047014B5868B9
:101A3000704700BF001000E0704710B504460C214D
:101A400028F02AFB204610BD036810B51B69044628
:101A500031B19847A26863689B1A1844606010BD52
:101A60009847A060FBE70000024B7020024A136019
:101A7000DB6818471000002088030020704710B56D
:101A80000446042128F008FB204610BD37B50A4D56
:101A90000C462B6813B9002003B030BD1B697020C1
:101AA0000192984701990028F5D02B6870202246B2
:101AB0005B6998470120EFE7880300207FB5012389
:101AC0008DF817204FF47A72CDE901320DF117022B
:101AD00000920A460146054804F0F3F810B10348A5
:101AE00004F0D6F807B05DF804FB00BFBC0100208D
:101AF0007FB500230A464FF47A718DF81730012321
:101B0000CDE901310DF1170100910146054804F0BE
:101B10008FF910B1034804F0BBF89DF8170007B027
:101B20005DF804FBBC010020032823D8DFE800F0A7
:101B3000020B131A104B102110481A68B2FA82F2E5
:101B4000520903F0B5BE0C4B40215A68B2FA82F23A
:101B500052090B48F5E7084B80219A68B2FA82F2E5
:101B60005209F6E7044B40210648DA68B2FA82F2DD
:101B70005209E6E7704700BF8C03002000040240D2
:101B80000008024000180240032823D8DFE800F0D4
:101B9000020B131A104B102110481A68003A18BF94
:101BA000012203F085BE0C4B40215A68003A18BF51
:101BB00001220B48F5E7084B80219A68003A18BFCC
:101BC0000122F6E7044B40210648DA68003A18BFC4
:101BD0000122E6E7704700BF8C03002000040240AA
:101BE000000802400018024003280FD8DFE800F088
:101BF0000206090B1021064803F05FBE402105488C
:101C0000FAE78021FBE740210348F5E7704700BF72
:101C1000000402400008024000180240012380F83E
:101C2000741080F8753070470020704741640039A7
:101C3000024B18BF01211970704700BFC377012004
:101C400000207047836B0BB10846184770474FF66A
:101C5000FF707047406803689B6918477047000031
:101C600038B5044601F084F823682046D3F888503C
:101C7000074BD4E90F12A8470023064D84F84A30D9
:101C80002846FFF7B5FE0123256184F86C3038BD86
:101C9000000000C09C03002001F044B801F048B8E7
:101CA00070B501F097F810490023C1F88430BFF3F4
:101CB0004F8FD1F8803043F6E074C3F3C900C3F30B
:101CC0004E335B0103EA0406024646EA8275013A96
:101CD000C1F87452F9D2203B13F1200FF2D1BFF3B7
:101CE0004F8FBFF36F8F70BD00ED00E001F080B843
:101CF00000F0F4BF01F09AB901F0A2B900F0F8BF0A
:101D000010B5044616F0FCFA23682046D3F8AC3030
:101D1000BDE81040184715F04DBD10B504467C21B4
:101D200028F0BAF9204610BD90F877301BB1406812
:101D300003681B68184718467047000090F8341075
:101D40000D4B10B590F874401A788C4209D03AB90E
:101D50000A490B4A08881488108001220C801A70E6
:101D600010BD002AFCD0064A0449148808880C805B
:101D700010800022F3E700BFBC770120BA77012072
:101D8000B877012070B50D46194635B9094B40F2B8
:101D9000D221094A094828F0ADF9C0E90F52003AAA
:101DA000074B18BF01221A700368BDE87040D3F8D2
:101DB0008C30184740B7020878B70208C6B7020847
:101DC000C277012008B5094B1B888B4203D8084B0A
:101DD0001B88934205D9074B9E21074A074828F0E4
:101DE00089F9074B1980074B1A8008BDB877012085
:101DF000BA7701200BB802086EB80208C6B702080D
:101E0000BE770120C0770120014608B5034B186852
:101E100001B1012116F08EFA012008BDC47701201E
:101E2000034B00225A609A60024A1A60704700BF52
:101E30009C03002008B702080121002208B50846CB
:101E400005F0DEFE0A4B186028B90A4B28210A4A21
:101E50000A4828F04FF900220421012005F096FFDE
:101E6000074B186018B9074B2C21034AF0E708BD4F
:101E7000AC0300208CB90208D5B9020804BA0208E4
:101E8000A803002054BA0208024B4FF0FF31186833
:101E900005F00CBFAC030020014B186805F040BFF3
:101EA000AC030020024B0021186805F0FFBE00BF04
:101EB000AC030020FFF7F0BF0023034803491A4694
:101EC000006805F0A9BF00BFA8030020040000209F
:101ED00013B50023074C01A91A46206805F0DEFF60
:101EE0004FF0FF33002201A9206805F0D7FF02B0B0
:101EF00010BD00BFA803002003685B6C18470120D9
:101F0000704703689B6A18470D4B82B01A6B42F406
:101F100000021A631A6B02F400020192019A1A6914
:101F200042F400021A611A6922F400021A61054B98
:101F3000054A1A614FF08062044B9A6002B0704704
:101F4000003802407C010020911F000800E100E001
:101F500040F2EF3070470000054B4FF080620360A5
:101F6000044BC3F88820BFF34F8FBFF36F8F7047C8
:101F7000F4BB020800E100E010B504464FF45A61DA
:101F8000FFF7EAFF204628F087F8204610BD000042
:101F9000024B1B68586803685B691847C4770120C7
:101FA00070B504460A4B0C3000262546602260605E
:101FB0002672667245F8203B294616F00FFB04F5A1
:101FC0005A63EE602435AB42FBD1204670BD00BFA2
:101FD000F4BB020808B50B290BD8DFE801F01206A4
:101FE000100A0A0A0A0808080808012008BD052086
:101FF000FCE7054B6621054A054828F07BF80020E0
:10200000F4E70220F2E700BF96BA0208B1BA02086C
:10201000FBBA020808B50A2909D8DFE801F0100662
:102020000E080808080606060600012008BD054B34
:102030008721054A054828F05DF80020F6E70220D0
:10204000F4E700BF96BA020849BB0208FBBA0208CF
:102050002DE9F8434F7F0C4681463946FFF7BAFF1A
:1020600094F81E80054648464146FFF7B3FF4146B7
:1020700006464846FFF7CEFFA18A628B424B521AB2
:102080001A649A61228B521A1A61E28A586342EAF0
:10209000014220695A646268D863DA60216894F862
:1020A0001CC080294FEA0C6226D010D8202945EAAE
:1020B000020462D0402960D004295ED02A43324B0A
:1020C000474542F40032DA615BD0304A40E0B1F576
:1020D000807F07D0B1F5007FF0D142F4003242F0AA
:1020E000090203E042F4003242F00A02DA61E268D7
:1020F0001A625E6258612AE0A4682A43211D42F4F4
:102100000032D962DA6122785E62586142B1012AF6
:1021100021D01F4B40F211111E4A1F4827F0EAFF41
:10212000DA690120618822F47F42013922F010022D
:1021300042EA0122DA61144BDA6942F02002DA61E4
:10214000DA699206FCD410229A600028BDD0134AA6
:102150001A60BDE8F8836288BCF1FF00D96902F11A
:10216000FF3418BF012021F47F4222F0100242EA1E
:10217000042242F01002DA61DDE744F40034DC614D
:10218000B7E740F20122E3E700B00240010201009C
:1021900094BB0208AEBB0208FBBA020801020200AF
:1021A00070B50C46897FFFF735FF174BA68AE18A89
:1021B000628B41EA06412569921B58635964DD63CD
:1021C0001A642668E168082E0DD19A611A61586276
:1021D0000E4A207F42EA0062DA610D4A19625D61AF
:1021E000DD601A6070BD0022D86148091A610A0AD0
:1021F00000F4FC60C1F3C40102F4784202430A43D4
:102200009A63044AEDE700BF00B0024009000100F4
:102210000102020001020300034B1A68D207FCD43A
:1022200023229A60704700BF00B0024030B5104CC6
:102230002568ED07FCD423250904FF2BA56041F098
:1022400001014FF0020565636164E0630AD009494A
:10225000656241EA0363E361074B22626061E0600B
:10226000236030BDE561039BA363044BF8E700BF27
:1022700000B002400900010001000200010003005B
:102280004069704790F844007047036B23B9C06AF7
:10229000003818BF012070470120704780687047E0
:1022A000043010B50C460FC884E80F0010BD70470D
:1022B00008B5034A40F2F911024B034827F01AFF10
:1022C0003CBC020837D5020897BC020810B504468A
:1022D000482127F0E1FE204610BD00002DE9F04323
:1022E0001C46436BADF51F7D05460E461746002B79
:1022F00052D0002203A8DFF8A890CDE901320DF0FA
:1023000059FF4FF4F4725021249024A807F073FE73
:102310003A46314624A808F007FE012124A807F018
:1023200073FF022324A88DF8D83008F011F8BDF807
:1023300098622B9BBDF89C729E4228BF1E46419B13
:102340009F4206EB460828BF1F46A89BA3EB460604
:10235000479B9F421AD9012201A924A808F041F8FD
:102360006B6B03EB080098420ED959789A78C90034
:1023700009EA022201F4FC610A4313F8031B42EA52
:10238000D10224F8022BEEE73444E1E724A807F059
:102390005DFF24A807F07CFE0DF51F7DBDE8F083EE
:1023A00000F8FFFF0A4A02600022C0E90522C0E9E6
:1023B0000722C0E90922C0E90B22C0E90D12C0E9D9
:1023C0000F2280F84420C0E90322C0E901227047AF
:1023D00078BF020820B40D4611461A46036B3BB184
:1023E000036C806BED1A28445DF8045B28F05CBB3D
:1023F000C06AF8E7036B10B573B1036C826BC91A3E
:102400005318525C98785C780004DB7840EA04202A
:10241000104340EA036010BDC36A5858FBE7036BE2
:1024200043B1036CC91A836B5A18585C527840EA5E
:1024300002207047C36A585A7047000070B50446BE
:10244000006B0D461646D8B1E36B934208D20923C0
:102450000D4A64210D4884F844300D4B27F04AFEA4
:102460000368DB689847206B3246A16B03681B69E1
:10247000984710B90D2384F84430A06B256470BDD3
:10248000E06A0844FBE700BF04BD020897BC0208ED
:10249000F1BC02082DE9F843436904462BB9234BEC
:1024A000A921234A234827F025FE08228169FFF746
:1024B000C5FFA169204643F23006043146F2643775
:1024C000FFF798FF0546A169A36A0D4405F10802CC
:1024D0009A4224D2636909350822204625F0010179
:1024E0000133A1616361FFF7A9FFD4F8188020468A
:1024F0004146FFF794FF814608F104012046FFF7AB
:1025000079FFB1450546DED108F102012046FFF70B
:1025100086FFB842D7D1002DD5D0012004E0012399
:1025200000206361236AA361BDE8F88346BD020809
:102530008FBD020897BC02082DE9F04F0446ADF5A7
:102540001F7D8A461546816908229846FFF776FF67
:10255000A7692046391DFFF74DFF07F10801024624
:1025600006462046FFF76AFF636B074633B93C4BCC
:102570004FF4CF713B4A3C4827F0BCFD002203A832
:10258000CDE901320DF016FE4FF4F4725021249083
:1025900024A807F030FD3246394624A808F0C4FCD0
:1025A000012124A807F030FE022324A88DF8D8309A
:1025B00007F0CEFEBAF90260479BB34205D2012272
:1025C00001A924A807F00DFFF6E7BAF900904FEA39
:1025D0004808BAF804702B9B08FB06554F44BAF81C
:1025E0000260DFF888B03FB29F4228BF1F46BAF8AA
:1025F000063009EB490A1E44419B36B29E4228BF71
:102600001E46479BB3421FD2012201A924A807F00E
:10261000E8FE626B49465244B94202F1030211D20C
:1026200012F8020C12F8013CC0000BEA032300F47C
:10263000FC60034312F8030C43EAD00325F8113081
:102640000131E9E74544DCE724A807F0FFFD24A8B1
:1026500007F01EFD01200DF51F7DBDE8F08F00BFC6
:10266000C2BD020818BE020897BC020800F8FFFFAE
:102670000129036838BF0121DB6A70B50D460446A5
:102680009847A84204D223682046DB6A984705464B
:102690006B1EE6691022204606EB031606F10801C0
:1026A000FFF7CCFE06F110012046FFF7A3FE236AD8
:1026B000043B0344C4E9055370BD00002DE9F34118
:1026C000002104464822816180F84410FFF7B6FEDD
:1026D000A7690423634A39462046FFF77BFE40B1D1
:1026E0000323614AF12184F84430604B604827F0AD
:1026F00001FD07F1080104235E4A2046A161FFF7AE
:1027000069FE30B10423584AF92184F844305A4B09
:10271000ECE707F10C010423584A2046A161FFF7BA
:1027200059FE064638B105234F4A4FF4807184F8AC
:102730004430534BDAE707F110012046FFF75AFE09
:10274000054620B94F4B4FF48371474ACEE707F156
:10275000140804234C4A20464146FFF73BFE00285C
:102760004BD0062384F844300423484A07F118016B
:102770002046FFF72FFE002841D0072384F844307D
:102780004544434F0C2220462946FFF757FE05F1EA
:10279000080604233A4620463146FFF71BFE94F80C
:1027A000443000284AD0002B4AD1A36A291DAB42ED
:1027B0004AD805F10C03291D2046A3610191FFF7BA
:1027C00019FE3044019960622046FFF713FE06446B
:1027D000042220463146FFF731FE04232D4A3146BC
:1027E0002046FFF7F7FD002839D10123E661636138
:1027F000A369236202B0BDE8F0810126B4E7002E90
:10280000BED007F120012046FFF7F4FD4FF47A73A4
:1028100007F13001B0FBF3F060602046FFF7EAFDFE
:1028200007F14001A0602046FFF7E4FD07F14401F5
:10283000E0602046FFF7DEFD2061A1E7002BB8D065
:102840000A2384F84430D5E72046FFF7D3FD08304B
:102850000C22054420462946FFF7F0FD97E70B239D
:10286000EFE700BF72BE020890BE020877BE020802
:1028700097BC0208BDBE0208C2BE0208DABE02084A
:10288000DFBE0208F5BE020801BF020806BF02084B
:102890000BBF020810BF0208C0E90A210022026330
:1028A000FFF70CBF10B5002304460846E3620B682F
:1028B00021639B689847A0622046BDE81040FFF75F
:1028C000FDBEF0B4BDF81050BDF814602AB123B1BC
:1028D000CDE90456F0BCFFF701BDF0BC7047000025
:1028E0002DE9FF479946436904460F4690462BB9A8
:1028F0002A4B76212A4A2B4827F0FCFB08228169C3
:10290000FFF79CFDA669204606F1080A311DFFF776
:1029100071FDA36A00EB0A0205469A4231D23146A4
:102920002046FFF77CFD43F2300398421DD1B11CD5
:102930002046FFF774FD46F26433984215D1A5B1E5
:102940002A4651462046C4F818A0FFF777FD0C9B95
:1029500001462A462046CDF80080CDE901933B464A
:10296000FFF7AFFF636901336361A3692B448DB146
:10297000A361A369626A013323F001039342A36157
:102980000AD10120236A6061A36180F0010004B0D4
:10299000BDE8F0870833EBE70020F6E746BD020804
:1029A00015BF020897BC0208012070470C20704731
:1029B0000C2303FB0100083070470C2303FB0100CC
:1029C000083070470120704742F66000704742F6B9
:1029D000600303FB01000830704742F6600303FB0D
:1029E000010008307047012070471020704700EB4D
:1029F00001100830704700EB01100830704708469E
:102A000000F0B4BE034B10B50446036014F01EFC86
:102A1000204610BD20C0020810B50446FFF7F2FFA3
:102A20001421204627F038FB204610BD034B10B57B
:102A30000446036014F00AFC204610BDECBF0208F7
:102A400010B50446FFF7F2FF42F66801204627F072
:102A500023FB204610BD0000034B10B50446036065
:102A600014F0F4FB204610BDB8BF020810B50446B0
:102A7000FFF7F2FF1821204627F00EFB204610BD7D
:102A8000094B10B50446036000F522501430FFF7DF
:102A9000B9FF04F12C00FFF7C9FF04F11400FFF7A0
:102AA000DBFF204610BD00BF54C0020808B5024835
:102AB000FFF7E6FF08BD00BFB403002010B50446D1
:102AC000FFF7DEFF42F60421204627F0E5FA204614
:102AD00010BD00002DE9F34100F038FC002405464C
:102AE00000F038FC234601462246284600941BF09D
:102AF000EFF8264B264A2046264D1A6000F0C4FF08
:102B000025481BF04DF82B78BFF35B8FDB0737D4DC
:102B1000284627F0C3FA98B3204C214B04F1140047
:102B200004F12C08236000F522576060C4F8088087
:102B300007F11806E760266114F08AFB194B40463E
:102B4000636114F085FB184B3846E36214F080FB98
:102B500004F50053154A03F6A800C3F8942801F0C1
:102B60007FFF224607F11401304601F06FFF304627
:102B700000F0FCFD0E4827F0DBFA284627F09AFA11
:102B80000C4802B0BDE8F041FFF76AB82878012090
:102B9000D83B0020B003002008000020B403002030
:102BA00054C00208B8BF0208ECBF020820C00208E7
:102BB000AD2A00085C3B0020014814F062BE00BF53
:102BC0005C3B002070B5234E234B244C3046244DF3
:102BD0002360FFF7E5F928461EF086F9214B002215
:102BE0004FF4807120481A861A6683F86C201A67A1
:102BF000DC60C3E912121D49C3E919124FF080715C
:102C00005967012183F8781019490B604FF4F0716E
:102C10000180184801804FF488711748C3E90422E5
:102C2000C3E90622C3E90822C3E90A22C3E90E2246
:102C3000C3E91022C3E91422C3E91622C3E90165DE
:102C400001800E4883F8342001800D490A700D4A36
:102C50001A6070BDBC2D002030B70208B82D0020CE
:102C6000DC3B00205C3B0020B87701200100000124
:102C7000C4770120BE770120BA770120C0770120F8
:102C8000BC770120BCB802080148FFF765B900BF56
:102C9000BC2D00201049002370B5C1F88430BFF36B
:102CA0004F8FD1F8803043F6E074C3F3C900C3F30B
:102CB0004E335B0103EA0406024646EA8275013A96
:102CC000C1F87452F9D2203B13F1200FF2D1BFF3B7
:102CD0004F8FBFF36F8F70BD00ED00E0034B90226C
:102CE00083F85A2383F85823704700BF00E100E0BF
:102CF000094A0A49D3680A48C3F30A03013B9BB255
:102D00000B801169C1F30A01013901801364536B0F
:102D100043F001035363704700680140583C0020B2
:102D2000563C0020014BD3F8AC00704700680140CE
:102D3000024B0122C3F8AC105A6270470068014090
:102D4000034B5B69DB0301D5FFF7A4BF704700BFEE
:102D500000ED00E07047382301FB033100234354AA
:102D600090F838300BB9036C8364704770470000EB
:102D700038B5044614F073FD23685D6E18F036FB19
:102D800001462046A8472368084A2046D3F88850C1
:102D90000023A2F57F31A847054B064A5A60064A30
:102DA0001A649A644FF4FF225A6438BD00F807C0D1
:102DB00024440020DC43002000F40BC014F036BD96
:102DC00090F84B3013B1024B01221A7014F03ABD47
:102DD000543C002008B514F0F3FC044B5B69DB03A2
:102DE00003D5BDE80840FFF755BF08BD00ED00E082
:102DF00014F04FBE10B50446582127F04DF9204677
:102E000010BD000008B531B1044B40F29711044ADF
:102E1000044827F06FF990F8390008BD60C0020837
:102E200074C0020801C2020810B531B1064B40F26D
:102E30009111064A064827F05DF94068114603687B
:102E4000BDE810401B6B184760C0020843C202086F
:102E500001C2020808B529B1034B7A21034A04488C
:102E600027F048F9006908BD60C00208F4C30208F1
:102E700001C2020808B529B1054B8321054A06485D
:102E800027F038F941618160C0E9063208BD00BF12
:102E900060C00208ACC5020801C2020810B50446B1
:102EA00029B1274BA421274A274827F023F9052ACF
:102EB00034D8DFE802F003292F34393E4068036834
:102EC0001B69984750B34FF0FF31606D04F03EFE30
:102ED0000023012294F83E1084F83B3084F8392016
:102EE000A360636101B1226284F83E306362E36AE9
:102EF0002BB90123206D84F83A3004F011FF606D86
:102F0000BDE8104004F052BE002380F8393084F848
:102F10003E3003E0036200238360436110BD03621F
:102F2000002383604361F2E7002380F839300123F6
:102F3000EDE7003B18BF012380F83D30EEE700BF0E
:102F400060C002086BC7020801C2020870B50446DF
:102F5000164629B1314BE721314A324827F0CAF8E9
:102F600090F8393033B1304B1B6893F867204369D0
:102F700013444361E36A002B4DD0E169D4E9053283
:102F80005343A2684A43934220D2236A002B42D083
:102F90004FF0FF31606D04F0D9FD236A0BB10023BF
:102FA000E362E36AFBB90125606D04F0FFFD94F86C
:102FB00039300BB9236A3BB1E36A2BB90123206D89
:102FC00084F83A3004F0ACFE284670BD94F84C000A
:102FD0000028DDD09B1AB3FBF1F2994298BF02F1B1
:102FE000FF326262D4E7002294F83C50A36230467C
:102FF000E262E2682261A2680132A2603363336850
:103000005B699847002DCED194F83D30002BCBD191
:1030100084F83950C8E70125C9E700BF60C002083D
:1030200042C9020801C20208C4770120034B4FF0D5
:1030300080629A604FF080729A60704700E100E011
:10304000084B4FF08062C3F88820BFF34F8FBFF367
:103050006F8F4FF08072C3F88820BFF34F8FBFF39C
:103060006F8F704700E100E038B590F838303BBB17
:1030700001228360C36082634FF480724361828760
:103080004FF4F0728361C361036243628362C3627F
:103090000363436380F83E30CA864FF4887281F838
:1030A00034300A870B63826C036102F5FF24D0E998
:1030B000101529448C420AD9084B5821084A03E0CC
:1030C000084B40F2F511084A084827F013F802634C
:1030D00002F57F3284644263184638BDA0CC0208F2
:1030E000E0CC0208E6CA020816CB020801C20208B8
:1030F00010B5144C236823B3134B144A1B6C11886E
:103100008B4213D1124B198803F018F9226892F8F8
:103110006630013382F86630FEF7CEFE206815F087
:10312000EFF80020BDE81040FEF7FEBC03F006F902
:10313000206803681B6A98470020BDE81040FEF72E
:1031400023BD10BDC477012000680140583C002019
:10315000563C00202DE9F74304464FF4707894F86C
:103160003A304FF0FF311BB9206D04F09FFDF6E7B8
:10317000606D04F0EBFC276BA36A266ABB426568AE
:1031800008BF676B36B32B68314628465B6A9847A1
:103190000023236284F83B30606D04F007FD2B6848
:1031A0004FF4F0723946CDF8008028465E694FF43E
:1031B0008873B0474FF0FF310646606D04F0C6FCDF
:1031C00094F83B30C3B1002384F83B30606D04F0C9
:1031D000EDFCC4E7636A002BDED02B682846D3E9F8
:1031E00009939847616A01442846C847A368626A00
:1031F00066621344A360CFE7E7625EB12B6828469E
:103200009B6A98470138E060002384F83C6084F8AA
:103210003A30DBE70123E360F6E70000014808B538
:10322000FFF798FF244400200368042270B5044689
:103230005E6A00230D46B0474FF0FF31606D04F029
:1032400085FC382101FB0543DA6A0AB10022DA6203
:1032500001FB0545012385F83B30002385F8393013
:10326000606DBDE8704004F0A1BC38B500EB81038F
:1032700004460D46114658680368DB68984729469E
:103280002046FFF7D1FF38BD70B50D461146044604
:1032900000EB85025068026896681A46B0472946D6
:1032A0002046FFF7C1FF70BD38B516490025164806
:1032B000FFF778F8154C164B01202A462946236063
:1032C0004FF48073A564A38784F84C0084F83E50C3
:1032D000C4E91055C4E91455C4E90155C4E90355BE
:1032E000C4E90555C4E90755C4E90955C4E90B55B6
:1032F000C4E90D5504F084FC2065284604F0E4FB85
:10330000606538BD5C3C0020DC4300202444002084
:1033100090CE0208704710B50446042126F0BCFE8A
:10332000204610BD012908B506D0022908D059B998
:1033300000F0E8FB006808BD00F0E4FB4068FAE735
:1033400000F0E0FB8068F6E70020F4E700487047F3
:10335000D8CE02081120704713B5002451B103687C
:1033600001AA01948DF803409C680DF10303A04766
:1033700002B010BD0846FBE740897047808970475E
:103380008088704783798088184480B27047C079FC
:1033900000F07F007047C079C009704770477047E0
:1033A00000F596730868496803C370477047704713
:1033B0004160704770470000064BC0F84401C0F8F8
:1033C00048310023C0F84C3100F5A073C0F83C31FF
:1033D000704700BFC935000801230372704770476A
:1033E000704710B441680346C2689B68541001EBF3
:1033F0006200D20748BF0A595DF8044B48BFD35852
:10340000184743682BB183682BB9C06800F00100EE
:103410007047184670470120704710B504460C21CC
:1034200026F03AFE204610BD10B50446102126F0C5
:1034300033FE204610BD10B504464FF4AC7126F0A3
:103440002BFE204610BD08B517F0D0FFBDE80840A0
:1034500018F072BB10B50446D0F83C0158B10368AF
:10346000DB68984738B1D4F83C0103689B689847FB
:103470000023C4F83C3110BD2DE9F14FD0E9545A76
:103480000746A86803681B6A984742F65F0398429C
:1034900005D8454BA321454A454826F02BFE6868D0
:1034A00003681B6A98470F2803D8424BA4213F4A60
:1034B000F2E7E86803681B6A98470B2803D83E4B7D
:1034C000A5213A4AE8E7DFF8F89017F08FFF17F0E8
:1034D00093FFD9F8000010B10368DB689847D9F86A
:1034E000000010B103681B689847DFF8D880D8F84F
:1034F000000010B103685B699847D7F8380110B134
:1035000003685B689847D8F8000010B103681B682F
:103510009847D7F8380110B103689B689847E86866
:1035200000214FF0000B03685B6A9847234B044669
:10353000C0F804B00360594680F808B0A868036872
:103540005B6A9847064601F0CBFA686859460368FB
:103550005B6A98470546314601F094FAC9F8004085
:10356000C7F83851C8F80060E5B12B1DCAF8003023
:1035700030463368C5F808A0DB68F56398472B68C8
:1035800028461B6898472146304619F001FC2368FD
:1035900020461B699847236820465B6901B0BDE857
:1035A000F04F18472B46E1E72CD00208BAD00208AA
:1035B000C4D102080BD20208AED20208BCD4020861
:1035C0000C780120087801202DE9F14FD0E9545AF8
:1035D0000746A86803681B6A9847DB2805D8454B4F
:1035E000A321454A454826F085FD686803681B6AA3
:1035F00098470F2803D8424BA4213F4AF2E7E868D6
:1036000003681B6A98470B2803D83E4BA5213A4A0A
:10361000E8E7DFF8F89017F0E9FE17F0EDFED9F8CB
:10362000000010B10368DB689847D9F8000010B1BA
:1036300003681B689847DFF8D880D8F8000010B1FD
:1036400003685B699847D7F8380110B103685B6875
:103650009847D8F8000010B103681B689847D7F85E
:10366000380110B103689B689847E86800214FF063
:10367000000B03685B6A9847234B0446C0F804B00C
:103680000360594680F808B0A86803685B6A9847E9
:10369000064601F057FA6868594603685B6A98471E
:1036A0000546314601F034FAC9F80040C7F83851F0
:1036B000C8F80060E5B12B1DCAF800303046336809
:1036C000C5F808A0DB68F56398472B6828461B6897
:1036D00098472146304619F05BFB236820461B695A
:1036E0009847236820465B6901B0BDE8F04F184752
:1036F0002B46E1E72CD0020851D30208C4D10208BE
:103700000BD20208AED20208BCD402080C78012009
:103710000878012070B504460D46164617F088FE5D
:103720000E4B00211C600E4BC4E954650D4D236007
:1037300028680D4BC4E95211C4E950310368C4E94B
:103740004E119B6898472B6893F876200AB1D86C85
:1037500000B998681FF0AFF9204670BD18780120B5
:1037600070D40208C477012058D40208064BC0F870
:103770004401C0F848310023C0F84C3100F5A07373
:10378000C0F83C31704700BFC9350008064BC0F88F
:103790004401C0F848310023C0F84C3100F5A07353
:1037A000C0F83C31704700BF79340008006A7047A8
:1037B000406A704770478B888069DB0A0A6850F856
:1037C00023001044704710B5C2B1137BB3B1547BD2
:1037D000D27A240204F4E0641443C26998B202EB82
:1037E000840213888B4202D192F9020010BD05D8E1
:1037F0000138043280B20028F3D1F7E70020F5E762
:1038000010B50446282126F047FC204610BD0000D4
:1038100030B589B00446BDF850500695BDF84C50FF
:1038200005959DF8405004959DF83C5003959DF8F2
:10383000385002959DF8345001959DF83050009510
:1038400018F01AFE064B20462360119BA361129BC1
:10385000E361159B2362169B636209B030BD00BF14
:10386000E0D402087047000030B5154D8DB02C78BB
:10387000BFF35B8F14F001041ED1284626F00EFC26
:10388000D0B13F2301220F4907930F4B0F480693F6
:103890000F4B089403940094CDE904430423CDE92D
:1038A0000944CDE901320A23FFF7B2FF094826F0A7
:1038B0003FFC284626F0FEFB04480DB030BD00BF9B
:1038C0007C44002038450B90B4030308804400205A
:1038D000C0030308653800087047000030B5154D77
:1038E0008DB02C78BFF35B8F14F001041ED12846F5
:1038F00026F0D4FBD0B13F2301220F4907930F4B91
:103900000F4806930F4B089403940094CDE90443A9
:103910000423CDE90944CDE901321423FFF778FFF0
:10392000094826F005FC284626F0C4FB04480DB0E3
:1039300030BD00BFA844002048450B90B8030308E1
:10394000AC440020C4030308D938000870470000C5
:1039500030B5154D8DB02C78BFF35B8F14F001049A
:103960001ED1284626F09AFBD0B13F2301220F49F1
:1039700007930F4B0F4806930F4B08940394009442
:10398000CDE904430423CDE90944CDE901322823DC
:10399000FFF73EFF094826F0CBFB284626F08AFBBE
:1039A00004480DB030BD00BFD444002058450B90F2
:1039B000BC030308D8440020C80303084D3900089D
:1039C00000207047002070470EB403B503AB002100
:1039D00053F8042B019318F07FFB02B05DF804EB61
:1039E00003B070470CB407B504AB53F8042B019334
:1039F00018F072FB03B05DF804EB02B070470000F2
:103A0000436C10B5044673B3038F2BB9184BC02118
:103A1000184A194826F06EFBC38E00EB43035B8CFB
:103A20000BB319F081FE238F012B03D8134BC52153
:103A3000134AEEE7E28E40F63F10531C9BB2092B6F
:103A4000194688BFA3F10A0104EB4101498C814268
:103A500009D10A2B04EB420228BF0023508C04EB4F
:103A60004303588451842046BDE8104019F05EBDE0
:103A700030D5020839D50208E4D502082ED602084E
:103A80003CD6020819F01BBD38B518BB124B1348C1
:103A90001B681349B3B11A689C681A441C4402603D
:103AA0005A681A440A600F4B00221A8000F02AF864
:103AB000054600F025F80C4B1C600C4B1D600C4BB0
:103AC000188007E00B4B03600B4B0B600B4B1C6823
:103AD000002CE8D138BD00BF00450020044500207F
:103AE000084500200C4500201C7801202478012086
:103AF000207801206C450B9068450B9074450B9025
:103B000000207047004870471045002010B5054C54
:103B1000FFF7E4FE2060FFF71BFF6060FFF7A4FEE5
:103B2000A06010BD104500200020704781807047C4
:103B3000C18070470181704741817047704770476D
:103B400070477047704710B4C4880368121B84889C
:103B50005B6D091B12B25DF8044B09B218474FF6B2
:103B6000FF7383814FF0FF3303621368C3611060FA
:103B700070477047704770477047704790F825202E
:103B80001AB190F8242002B11860704700207047E5
:103B90008B8883800120704770477047704710B54D
:103BA000044642F6600126F077FA204610BD90F8F0
:103BB000252012B103685B6918477047036870B528
:103BC00004461B6B154698472368204629465B6BC5
:103BD000BDE87040184770B504461D46BDF9106039
:103BE000FFF7ECFF2368294620469B6B9847236824
:103BF00031462046DB6BBDE870401847002370B5A6
:103C0000124E05468380124B0360336893F876208A
:103C10000AB1D86C00B998680368DB6A98473368C2
:103C2000B0FA80F4D86C640930B10368DB6A984755
:103C3000002808BF44F001042CB9064B2C21064A89
:103C4000064826F057FA284670BD00BFC477012009
:103C500010D802080ED702086CD70208A5D70208B0
:103C600038B504460D46FFF7C9FF034B2046E56013
:103C700023602433A36038BD30FB02080022826237
:103C800080F82C20C0E90122C0E90322C0E9052206
:103C9000C0E9072240F201128284044A02604FF612
:103CA000FF72C285028680F832207047E0FD02086C
:103CB0005201490114F0BCBF5201490114F0C3BFC5
:103CC00010B4C46B4A01B4EB411F04D05DF8044B3F
:103CD000C26314F0B7BE5DF8044B70472DE9F04F96
:103CE000804600244FF48877042608F52A7B08F5DF
:103CF0004B7A08F56C7905252DED108BA9B018F0DD
:103D00009BFE4246E74B27A9C8F83C4042F8403B9F
:103D1000E54BC8F86040C8F868401B92C8E9103409
:103D20004FF48073A8F86430FF2388F8663008F1F8
:103D30006C030BEE903A4FF6FF73C8E91244C8E9E2
:103D40001444C8E916441BEE900AADF89C3015F0F7
:103D50008BF808F19803184608EE103A14F052FE5A
:103D600008F58473214618461C93FFF779FF08F580
:103D70008E73184608EE903A14F044FE08F5C673A8
:103D8000214618461D93FFF76BFF08F5D0731846C0
:103D900009EE103A14F036FE08F504732146184671
:103DA0001E93FFF75DFF08F50973184609EE903A78
:103DB00014F028FE08F52573214618461F93FFF7D7
:103DC0004FFF584614F01EFE08F54673214618466C
:103DD0002093FFF745FF504614F014FE08F5677373
:103DE000214618462193FFF73BFF484614F00AFE90
:103DF00008F58463214618462293FFF731FF08F245
:103E0000344318460AEE103A14F0FCFD08F2A443BD
:103E1000214618462393FFF723FF08F597631846BA
:103E20000AEE903A14F0EEFD08F5A5632146184617
:103E30002493FFF715FF08F23C5318460BEE103A97
:103E400014F0E0FD08F2AC53214618462593FFF725
:103E500007FF08F5B86318460CEE103AFFF70EFF9F
:103E600008F2F45318460CEE903AFFF707FF08F5F6
:103E7000C56318460DEE103AFFF700FF08F25C63C9
:103E800018460DEE903AFFF7F9FE08F5D263184692
:103E90000EEE103AFFF7F2FE08F2C46318460EEE7B
:103EA000903AFFF7EBFE08F5DF6318460FEE103A85
:103EB000FFF7E4FE08F22C7318460FEE903AFFF776
:103EC000DDFE08F5EC6318460393FFF7D7FE08F212
:103ED000947318460493FFF7D1FE08F5F96318466A
:103EE0000593FFF7CBFE08F2FC7318460693FFF725
:103EF000C5FE08F5036318460793FFF7BFFE08F6F3
:103F0000640318460893FFF7B9FE08F698031846AD
:103F10000993FFF7B3FE08F6CC0318460A93FFF7A0
:103F2000ADFE08F5106318460B93FFF7A7FE08F6E1
:103F3000341318460C93FFF7A1FE08F668131846D1
:103F40000D93FFF79BFE08F69C1318460E93FFF7A0
:103F500095FE08F51D6318460F93FFF78FFE08F6D0
:103F6000042318461093FFF789FE08F638231846F5
:103F70001193FFF783FE08F66C2318461293FFF7A0
:103F80007DFE08F52A6318461393FFF777FE08F6BF
:103F9000D42318461493FFF771FE08F60833184629
:103FA0001593FFF76BFE08F63C3318461693FFF7A0
:103FB00065FE08F5376318461793FFF75FFE08F6AE
:103FC000A43318461893FFF759FE08F6D83318465D
:103FD0001993FFF753FE08F60C4318461A93FFF7A0
:103FE0004DFE08F544604FF4E15116F02FF92246DA
:103FF00021461B984FF4F0730097FFF7ECFD4FF04C
:104000007F4327A91BEE900AC8F86830ADF89C6082
:1040100015F02BFA22464FF4F07321461BEE900A5E
:104020000097FFF7D8FD21461BEE900A14F0E3FE3F
:10403000214618EE100A4FF4F07342220095FFF764
:10404000CAFD4FF07F4322462146C8F8143118EECE
:10405000100A1C9BA8F81841C8F8C030FFF728FECA
:10406000224618EE100A4FF4F071FFF725FE314694
:1040700018EE100AFFF724FE18EE100A012114F0C2
:10408000EDFD214618EE900A4FF4F073CC22009516
:10409000FFF7A1FD4FF07F4322462146C8F8983133
:1040A00004E000BF30D8020878FD020818EE900A3C
:1040B0001D9BA8F89C41C8F84431FFF7F9FD224642
:1040C00018EE900A4FF4F071FFF7F6FD314618EE46
:1040D000900AFFF7F5FD18EE900A012114F0BEFDDD
:1040E000214619EE100A4FF4F07386220095FFF76F
:1040F00072FD4FF07F4322462146C8F81C3219EE6C
:10410000100A1E9BA8F82042C8F8C831FFF7D0FD5E
:10411000224619EE100A4FF4F071FFF7CDFD31463B
:1041200019EE100AFFF7CCFD19EE100A012114F068
:1041300095FD2B46224619EE900A3A210097FFF78B
:104140004AFD4FF07F4322462146C8F8A03219EEBF
:10415000900A1F9BA8F8A442C8F84C32FFF7A8FDAC
:104160003A46214619EE900AFFF7A6FD314619EEB0
:10417000900AFFF7A5FD214619EE900A14F06EFD96
:104180002B462246584676210097FFF724FD4FF034
:104190007F4322462146C8F824335846209BA8F87E
:1041A0002843C8F8D032FFF783FD3A4621465846E7
:1041B000FFF782FD31465846FFF782FD21465846FB
:1041C00014F04CFD2B4622465046B2210097FFF7D3
:1041D00002FD4FF07F4322462146C8F8A8335046DF
:1041E000219BA8F8AC43C8F85433FFF761FD3A4669
:1041F00021465046FFF760FD31465046FFF760FD0F
:104200002146504614F02AFD2B4622464846EE2110
:104210000097FFF7E0FC4FF07F4322462146C8F8A5
:104220002C344846229BA8F83044C8F8D833FFF70E
:104230003FFD3A4621464846FFF73EFD3146484697
:10424000FFF73EFD2146484614F008FD2B46224666
:104250001AEE100A4FF495710097FFF7BCFC4FF06F
:104260007F4322462146C8F8B0341AEE100A239B39
:10427000A8F8B444C8F85C34FFF71AFD3A46214662
:104280001AEE100AFFF718FD31461AEE100AFFF772
:1042900017FD21461AEE100A14F0E0FC2B462246C8
:1042A0001AEE900A4FF4B3710097FFF794FC4FF0A9
:1042B0007F4322462146C8F834351AEE900A249BE3
:1042C000A8F83845C8F8E034FFF7F2FC3A46214632
:1042D0001AEE900AFFF7F0FC31461AEE900AFFF74B
:1042E000EFFC21461AEE900A14F0B8FC2B46224649
:1042F0001BEE100A4FF4D1710097FFF76CFC4FF0E2
:104300007F4322462146C8F8B8351BEE100A259B8C
:10431000A8F8BC45C8F86435FFF7CAFC3A46214600
:104320001BEE100AFFF7C8FC31461BEE100AFFF720
:10433000C7FC21461BEE100A14F090FC21461CEE2F
:10434000100A0322FFF73AFC27AA26A91CEE100A3E
:10435000ADF89C40ADF8985014F0BAFF1CEE900AEE
:1043600003223C21FFF72AFC27AA26A91CEE900A6B
:10437000ADF89C40ADF8985014F0AAFF1DEE100A5D
:1043800003227821FFF71AFC27AA26A91DEE100A9E
:10439000ADF89C40ADF8985014F09AFF1DEE900ACD
:1043A0000322B221FFF70AFC27AA26A91DEE900AD4
:1043B000ADF89C40ADF8985014F08AFF1EEE100A3C
:1043C0000322EE21FFF7FAFB27AA26A91EEE100A08
:1043D000ADF89C40ADF8985014F07AFF1EEE900AAC
:1043E00003224FF49571FFF7E9FB27AA26A91EEED9
:1043F000900AADF89C40ADF8985014F069FF1FEE9C
:10440000100A03224FF4B371FFF7D8FB27AA26A99D
:104410001FEE100AADF89C40ADF8985014F058FF0C
:104420001FEE900A03224FF4D171FFF7C7FB27AAB2
:1044300026A91FEE900AADF89C40ADF8985014F0F4
:1044400047FF214603984722FFF7B8FB27AA26A972
:104450000398ADF89C40ADF8985014F039FF0498DB
:1044600047223C21FFF7AAFB27AA26A90498ADF80A
:104470009C40ADF8985014F02BFF05984722782106
:10448000FFF79CFB27AA26A90598ADF89C40ADF83C
:10449000985014F01DFF06984722B221FFF78EFBBB
:1044A00027AA26A90698ADF89C40ADF8985014F0BC
:1044B0000FFF07984722EE21FFF780FB27AA26A9C6
:1044C0000798ADF89C40ADF8985014F001FF08989B
:1044D00047224FF49571FFF771FB27AA26A9089888
:1044E000ADF89C40ADF8985014F0F2FE09984722C0
:1044F0004FF4B371FFF762FB27AA26A90998ADF81C
:104500009C40ADF8985014F0E3FE0A9847224FF40F
:10451000D171FFF753FB27AA26A90A98ADF89C4052
:10452000ADF8985014F0D4FE0B988B220121FFF7C0
:1045300045FB27AA26A90B98ADF89C40ADF89850EA
:1045400014F0C6FE0C988B223D21FFF737FB27AAFB
:1045500026A90C98ADF89C40ADF8985014F0B8FE20
:104560000D988B227921FFF729FB27AA26A90D9800
:10457000ADF89C40ADF8985014F0AAFE0E988B222E
:10458000B321FFF71BFB27AA26A90E98ADF89C4084
:10459000ADF8985014F09CFE0F988B22EF21FFF796
:1045A0000DFB27AA26A90F98ADF89C40ADF89850AE
:1045B00014F08EFE10988B2240F22B11FFF7FEFABA
:1045C00027AA26A91098ADF89C40ADF8985014F091
:1045D0007FFE11988B2240F26711FFF7EFFA27AAAE
:1045E00026A91198ADF89C40ADF8985014F070FED3
:1045F00012988B2240F2A311FFF7E0FA27AA26A90E
:104600001298ADF89C40ADF8985014F061FE1398E4
:10461000D1220121FFF7D2FA27AA26A91398ADF8D3
:104620009C40ADF8985014F053FE1498D1223D21CF
:10463000FFF7C4FA27AA26A91498ADF89C40ADF854
:10464000985014F045FE1598D1227921FFF7B6FA5B
:1046500027AA26A91598ADF89C40ADF8985014F0FB
:1046600037FE1698D122B321FFF7A8FA27AA26A968
:104670001698ADF89C40ADF8985014F029FE1798A4
:10468000D122EF21FFF79AFA27AA26A91798ADF8A9
:104690009C40ADF8985014F01BFE1898D12240F2BF
:1046A0002B11FFF78BFA27AA26A91898ADF89C4082
:1046B000ADF8985014F00CFE1998D12240F2671111
:1046C000FFF77CFA27AA26A91998ADF89C40ADF807
:1046D000985014F0FDFD1A98D12240F2A311FFF773
:1046E0006DFAADF89C4008EB060427AA26A91A9893
:1046F000ADF8985014F0ECFD1B99204612F0BCFD6B
:104700001BEE901A204612F0B7FD18EE101A204644
:1047100012F0B2FD18EE901A204612F0ADFD19EE1F
:10472000101A204612F0A8FD19EE901A204612F039
:10473000A3FD5946204612F09FFD5146204612F037
:104740009BFD4946204612F097FD1AEE101A2046AE
:1047500012F092FD1AEE901A204612F08DFD1BEE1B
:10476000101A204612F088FD1CEE101A204612F096
:1047700083FD1CEE901A204612F07EFD1DEE101AED
:10478000204612F079FD1DEE901A204612F074FDBD
:104790001EEE101A204612F06FFD1EEE901A2046F3
:1047A00012F06AFD1FEE101A204612F065FD1FEE92
:1047B000901A204612F060FD0399204612F05CFD2D
:1047C0000499204612F058FD0599204612F054FD38
:1047D0000699204612F050FD0799204612F04CFD34
:1047E0000899204612F048FD0999204612F044FD30
:1047F0000A99204612F040FD0B99204612F03CFD2C
:104800000C99204612F038FD0D99204612F034FD27
:104810000E99204612F030FD0F99204612F02CFD23
:104820001099204612F028FD1199204612F024FD1F
:104830001299204612F020FD1399204612F01CFD1B
:104840001499204612F018FD1599204612F014FD17
:104850001699204612F010FD1799204612F00CFD13
:104860001899204612F008FD1999204612F004FD0F
:1048700020461A9912F000FD404629B0BDEC108B7D
:10488000BDE8F08F70477047704730B44468034606
:10489000C2689B68551004EB6200D20748BF62599A
:1048A00030BC48BFD358184743682BB183682BB935
:1048B000C06800F00100704718467047012070473B
:1048C00010B50446102125F0E7FB204610BD10B5B9
:1048D0000446DC2125F0E0FB204610BD6C30884208
:1048E00008B505D116F082FDBDE80840FEF74EBFC1
:1048F00008BD00002DE9F043044687B018F09CF88D
:1049000000252746424BE56304F1A00647F8403BEB
:1049100005A9404B304625664FF48879A56604F119
:104920006C08C4F8945084F89850C4E910354FF4DA
:104930008073A4F86430FF2384F8663040F20113DA
:10494000A4F89030344BE3664FF6FF73C4E9125578
:10495000A4F89A30A4F89C3084F89E30ADF8143056
:10496000C4E91455C4E91655C4E91C55C4E91E55DB
:10497000C4E92055C4E9225514F076FA274B2A469B
:1049800029463846CDF80090C4E93334244BC4E9B5
:1049900035354FF4F073FFF71EF94FF07F432A4689
:1049A00029464046A366FFF709F9042305AA04A98E
:1049B0004046ADF81030ADF8143014F089FC04F125
:1049C000CC0305A93046C4F894301023ADF8143058
:1049D00014F04BFD4FF4F0732A4629463046CDF8CB
:1049E0000090FFF7F8F82946304614F004FA201D2D
:1049F0003946039012F040FC4146039812F03CFC0B
:104A00000398314612F038FC204607B0BDE8F08329
:104A10007CD8020878FD0208E0FD020864D802088C
:104A2000DD480008704710B504464FF4AC7125F01E
:104A300033FB204610BD10B50446D0F8540100F0F9
:104A400012F82046BDE8104016F07EBB10B50446B3
:104A5000FEF760FE014B2046236010BDB0D802086F
:104A600000220260704770477047043870477047F3
:104A700010B50446102125F00FFB204610BDA0F113
:104A80000400F5E70022C1608260044A10B502F11B
:104A9000080420320460426010BD00BFF4D8020850
:104AA000704770471FB50446FFF778F8002303AA44
:104AB00004F2F45002A9ADF808300190ADF80C30C2
:104AC00014F006FC019804B0BDE8104017F026BCB5
:104AD00010B5044642F6600125F0DEFA204610BD0E
:104AE00010B50446FFF7FAF8014B2046236010BDCD
:104AF00024D90208704704387047704710B504463F
:104B0000102125F0C9FA204610BDA0F10400F5E7F8
:104B10000022C1608260044A10B502F1080420320C
:104B20000460426010BD00BF50D902087047704752
:104B3000FFF7A9BE10B50446DC2125F0ADFA2046EA
:104B400010BD000010B50446FFF7D4FE014B20460F
:104B5000236010BD80D9020800B54FF4807295B073
:104B60004FF0807103460C9205220F9101210692AD
:104B7000002201910B92139200920B48CDE903128F
:104B8000CDE90D22CDE91122102206A902924FF49F
:104B9000800205926A4601F0A9FD003818BF012085
:104BA00015B05DF804FB00BF1C45002000B54FF4B4
:104BB000807395B041F2883217480C93062306A9FA
:104BC00006930023CDE90D330F930B931393CDE997
:104BD000113301F048FDE0B9022301224FF48001B6
:104BE00004900D48CDE900331023CDE902320523AE
:104BF0006A46CDE905134FF0807306A90F9341F281
:104C0000883301F073FD003818BF012015B05DF83E
:104C100004FB0120FAE700BF1C45002000B54FF45B
:104C2000807391B04FF040720E480893EB2302A9B5
:104C300002934FF4406309934FF40053059300230C
:104C4000CDE90A320A220F9307926A46CDE90D3365
:104C5000CDE9003301F09AFD003818BF012011B0F2
:104C60005DF804FB1C450020454B012145489A6B2B
:104C700042F00202F0B59A638DB09A6B09240427C2
:104C8000002602F00202404D0092009A9A6942F01A
:104C900002029A619A6922F002029A611A6B42F04A
:104CA00002021A631A6B02F002020192019A1A6B55
:104CB00042F002021A631A6B02F002020292029A96
:104CC0001A6B42F008021A631A6B02F00802039290
:104CD000039A1A6B42F008021A631A6B02F0080278
:104CE0000492049A1A6B42F010021A631A6B02F0D3
:104CF00010020592059A1A6B42F008021A634022CC
:104D00001B6B03F008030693069B0223CDE90723E0
:104D10000323CDE909130A2307A90B9300F042FCF2
:104D200007A91848079709960B9400F03BFC4FF42D
:104D3000006307A928460B94079300F033FC4FF457
:104D4000805307A928460B94079300F02BFC07A972
:104D50000E4807970B9400F025FC4FF4005307A969
:104D600028460B94079300F01DFC32460F215C206F
:104D700000F0D8F95C2000F007FA0DB0F0BD00BFDC
:104D80000038024000040240000C024000100240C3
:104D9000F0B5494C91B0494B2046236001F050FCDE
:104DA000054610B1012011B0F0BD01462046FFF7C5
:104DB0005BFF012604234FF08077C4E901631023D1
:104DC000E36097FAA7F3B3FA83F32046013B23612C
:104DD0004FF4A063C4E90755C4E9053501F0DCFBD5
:104DE0000028DFD14FF4807566230B9041F28832A2
:104DF000079002A90F9008950293CDE90900CDE92B
:104E00000D00204601F02FFC08B10420CBE79923C8
:104E100041F2883202A92046029301F024FC0028C6
:104E2000F3D141F28830FFF797FE0028EDD18523BA
:104E3000079041F2883202A9089502930B97CDE9B9
:104E40000900CDE90C60CDE90E00204601F00BFC15
:104E50000028DAD141F288320DF10701204601F035
:104E600075FD0028D1D1FFF7A1FE0028CDD1812307
:104E7000F022029392FAA2F20A219DF80730B2FAC8
:104E800082F2204603F00F0301FA02F202A9134353
:104E900041F288328DF8073001F0E5FB0028B4D1EB
:104EA00041F288320DF10701204601F0F3FC0028A1
:104EB0003FF479AFA9E700BF1C450020001000A017
:104EC0000F490020D1F8883043F47003C1F88830CE
:104ED0000C4B1A6842F001021A6098601A6822F0BE
:104EE000847222F480321A60074A5A601A6822F4E7
:104EF00080221A60D8604FF000638B60704700BF5B
:104F000000ED00E00038024010300024704700201F
:104F100070470000002337B58DF807300D4B1A7825
:104F20000AB901221A700324C5B2013CA8212846FF
:104F3000FCF7DEFD14F0FF048DF807009DF8073044
:104F4000DBB203D19DF8070003B030BD512BECD18B
:104F5000F8E700BF6A45002013B500240221C0B263
:104F60008DF80740FCF7C4FD8DF807009DF8073069
:104F700003F00F038DF807309DF80730052B01D99A
:104F80008DF807409DF80720034B9DF807005A70E5
:104F900000229A7002B010BD6A4500202DE9F74F3B
:104FA0002F4D164600230F46AC786A788DF80730EF
:104FB000A2424DD9092C4ED804EB44035B00DBB26E
:104FC000191D03F1030B03F1060A0533C9B25FFA99
:104FD0008BFB5FFA8AFA5FFA83F8C4B2DFF8849039
:104FE0002046FCF785FD8DF807009DF807305946EF
:104FF0002046A9F80030FCF77BFD8DF807005146EC
:105000009DF807302046B9F800201B0203F47063B6
:1050100013433B80A9F80030FCF76AFD8DF80700C8
:1050200041469DF807302046A9F80030FCF760FDA6
:105030008DF807009DF80730B9F800201B0203F433
:1050400070631343A9F800303380AB780133AB7041
:1050500003B0BDE8F08F98469A469B461946BCE7D8
:105060006A450020684500200122A421C0B2FCF757
:1050700025BD0022A421C0B2FCF720BDFFF7F9BF77
:1050800070470000024B1A780AB901221A70704763
:105090006A450020074A032008B5136843F480736B
:1050A000136000F02DF80020FCF7C2FBFCF764F958
:1050B000002008BD003C0240034A044B11681B78E5
:1050C0000B441360704700BF70450020380000207B
:1050D000014B1868704700BF7045002038B5044682
:1050E000FFF7F6FF0546631C1EBF044B1B78E41850
:1050F000FFF7EEFF431BA342FAD338BD3800002070
:1051000007490302CA6803F4E06322F4E062120470
:10511000120C134343F0BF6343F40033CB6070477A
:1051200000ED00E0164B30B5DC68C4F30224C4F196
:105130000705231D042D28BF0425062B4FF0FF3340
:105140008CBF033C002403FA05F5002803FA04F39E
:1051500021EA050122EA030201FA04F141EA02030D
:105160004FEA0313DBB206DB00F1604000F561405B
:1051700080F8003330BD00F00F00024A1354F9E705
:1051800000ED00E014ED00E0002808DB42090123F7
:1051900000F01F0003FA00F0014B43F822007047B3
:1051A00000E100E000280DDB4309012200F01F00B0
:1051B000203302FA00F0044A42F82300BFF34F8F75
:1051C000BFF36F8F704700BF00E100E0BFF35F8F58
:1051D000044B5A6A22F480325A620022C3F89420A7
:1051E000704700BF00ED00E0064B40F00100C3F83F
:1051F00094005A6A42F480325A62BFF34F8FBFF371
:105200006F8F704700ED00E04378144A10B5C2F884
:1052100098300178E9B14368C2F89C30C37A047BC6
:105220001B0643EA04730B43817A43EAC143417B83
:1052300043EA8143817B43EA4143C17B43EA014323
:10524000417A43EA0123017A43EA4103C2F8A030DC
:1052500010BDC2F89C10C2F8A010F9E700ED00E004
:1052600010B5044608B9012010BD437F03F0FF02CA
:1052700013B90277FCF79EF8022363772379E3B929
:105280002368134A5A619A6822F018029A60627978
:105290002368D2B94FF0FF321A6100209A68616921
:1052A00022F060020A43A1699A609A6822F08002A3
:1052B0000A439A6001236377D6E7D4E902122046B5
:1052C00000F008F80028E2D0CDE72269E4E700BF4B
:1052D000B71DC1041F2310B5013B1CD321FA03F4F1
:1052E000E407F9D5102A12D004D83AB1082A10D010
:1052F00001200BE0182AFBD1062BF9D80068416188
:10530000836823F018031A438260002010BD072B26
:10531000F3E70F2BF1E7002AEAD1EFE770B5044677
:10532000866DFFF7D5FE054694F83530022B06D082
:10533000802301206365002384F8343070BD236826
:105340001A6822F016021A605A6922F080025A6125
:10535000226C0AB9A26C1AB11A6822F008021A600B
:105360001A6822F001021A6023681B6813F0010317
:105370000AD1E16D3F2218468A40B260012284F8CA
:10538000343084F83520D9E7FFF7A2FE401B05280A
:10539000EAD9202303206365002384F8350084F8CC
:1053A0003430CBE710B5044630B390F8393003F011
:1053B000FF021BB980F83820FCF712F8226802239C
:1053C0006168002084F83930136823F440330B43BC
:1053D000A1681360536B23F007030B43E168536329
:1053E000136C23F47F5323F03F030B431364012317
:1053F000E06384F8393010BD0120FCE77047704746
:10540000036870B55E6804461D68F20714D5E905A7
:1054100012D51A6822F480721A60C26B42F001023F
:10542000C26301229A60042380F83930002380F897
:105430003830436903B19847B20616D5AB0414D58A
:1054400023681A6822F400521A6020229A60E36BE3
:1054500043F00203E363042384F83930002384F823
:10546000383063690BB120469847300716D52905B7
:1054700014D523681A6822F400621A6008229A6020
:10548000E36B43F00403E363042384F8393000231F
:1054900084F8383063690BB12046984772070BD502
:1054A0006B0509D5236820461A6822F480621A60C9
:1054B00004229A60FFF7A2FFB00714D5A90512D500
:1054C00023681A6822F400721A6002229A60E36B61
:1054D000E363012384F83930002384F838302369EA
:1054E0000BB120469847F20613D5EB0411D523687B
:1054F00020461A6822F480521A6010229A60E36BE8
:10550000E363012384F83930002384F83830FFF74F
:1055100076FF70BDF0B590F83830012B4FF00203E4
:105520002BD080F83930012200EB01131C4F80F89A
:1055300038200E015D6AD3E9074244EA0242093C81
:10554000012C96BF05F07F4342EA05621A430368C7
:10555000A9B9596A012C01EA070142EA01025A621B
:1055600082699A6103D8426A22F07F429A620123DB
:1055700080F83930002380F838301846F0BDD969FA
:10558000012C01EA070142EA0102DA6100EB06029E
:1055900092691A61EBD825F07F451D62E7E700BFED
:1055A000F0FFFC002DE9F74F0023DFF8BC916C4AB7
:1055B00001240D689C4004EA050CAC4340F0B68021
:1055C0004D684FEA4308032605F0030406FA08F67F
:1055D000671EF643012F34D8876807EA060ECF68A6
:1055E00007FA08F747EA0E078760476827EA0C0EB4
:1055F000C5F300179F4047EA0E074760C768022CB3
:1056000007EA060E8F6807FA08F747EA0E07C76031
:1056100019D14FEAD30A03F0070B4FF00F0E00EB3E
:105620008A0A4FEA8B0BDAF820700EFA0BFE27EA93
:105630000E0E0F6907FA0BF747EA0E07CAF820703B
:1056400001E0032CDAD1076804FA08F415F4403FAE
:1056500006EA070646EA0406066067D0D9F8444021
:1056600023F0030603F003074FF00F0E44F48044C9
:1056700006F18046BF00C9F8444006F59C36D9F8CB
:10568000444004F480440194019C0EFA07F4D6F8D7
:10569000088028EA040E334CA0424ED004F5806402
:1056A000A0424CD004F58064A0424AD004F5806446
:1056B000A04248D004F58064A04246D004F580643E
:1056C000A04244D004F58064A04242D004F5806436
:1056D000A04240D004F58064A0423ED004F580642E
:1056E000A0420CBF09240A24BC40EF0244EA0E0485
:1056F000B4606FEA0C06946854BF34404CEA04046A
:10570000AF029460D46854BF34404CEA0404AF0341
:10571000D460546854BF34404CEA0404ED03546030
:10572000146854BF34404CEA040414600133102B55
:105730007FF43EAF03B0BDE8F08F0024D4E701242E
:10574000D2E70224D0E70324CEE70424CCE70524E3
:10575000CAE70624C8E70724C6E70824C4E700BF51
:10576000003C014000000240003802402DE9F04FAB
:1057700000224A4CDFF82C91DFF82CA1DFF82CB185
:10578000012303FA02FE3EEA01030EEA01076ED18D
:1057900022F0030502F0030C0F26414B05F1804572
:1057A0004FEA8C0C984205F59C3506FA0CF6D5F8B4
:1057B000088006EA08085FD003F5806398425DD050
:1057C00003F5806398425BD003F58063984259D01B
:1057D00003F58063984257D0484557D0504557D07D
:1057E000584557D003F58053984255D003F5806350
:1057F00098420CBF09230A2303FA0CF3434513D143
:10580000236823EA07032360636823EA07036360CE
:10581000E36823EA0703E360A36823EA0703A360BE
:10582000AB6823EA0603AB6003265300056802F069
:10583000070C06FA03F30F274FEA8C0C25EA030541
:1058400007FA0CF7056022FA06F500EB85052E6ACB
:1058500026EA07072F62C56825EA0305C560456883
:1058600025EA0E054560856825EA03038360013259
:10587000102A85D1BDE8F08F0023BDE70123BBE7E7
:105880000223B9E70323B7E70423B5E70523B3E70A
:105890000623B1E70723AFE70823ADE7003C01404B
:1058A000000002400014024000180240001C0240A8
:1058B0000AB1816170470904FBE7436901EA030209
:1058C00021EA030141EA02418161704703689A6954
:1058D000910701D500229A629A69D20703D49A6986
:1058E00042F001029A61704730B5039DC1F309018E
:1058F00004682B43606843EA0243054A0B4342EACB
:10590000555223F0004320EA02000343636030BD98
:10591000FF63FF032DE9F8430368054688461746F1
:105920009C6914F0100479D0102200264FF0200951
:10593000DA612B689A69940636D40EB1042439E0F2
:10594000B8F1FF3FF6D0FFF7C3FBC01B404502D8BC
:10595000B8F1000FEDD12B68596895F8422098698D
:10596000D2B200040AD5490408D4202A06D05A68C5
:1059700042F480425A60FFF7ABFB07462B689C69F4
:1059800014F02004D5D1FFF7A3FBC01B1928F5D9CB
:105990006B6C012685F8404043F020036B6485F86A
:1059A000419085F84240E9E7002EC7D12022042427
:1059B0000126DA612B689A69D00505D54FF480710C
:1059C00044F001040126D961510505D54FF48061E9
:1059D00044F008040126D961920521D54FF40072E4
:1059E00044F00204DA6128460126FFF76FFF2A68B7
:1059F000536823F0FF7323F48B3323F4FF7323F0F6
:105A0000010353606B6C1C4320236C6485F84130A8
:105A1000002385F8423085F8403003E02646C9E788
:105A2000002EE0D13046BDE8F88370B504460D463F
:105A3000164623689B699B0701D5002070BD32463E
:105A400029462046FFF766FFA0B96A1CF1D0FFF790
:105A50003FFB801BA84201D8002DEAD1636C43F0C4
:105A600020036364202384F84130002384F842300B
:105A700084F840300120E1E72DE9F041069F04461B
:105A8000884616461D462268936938EA03030CBF10
:105A900001230023B34201D0002015E06B1CF3D09A
:105AA000FFF716FBC01BA84201D8002DEBD1636C99
:105AB000012043F020036364202384F84130002355
:105AC00084F8423084F84030BDE8F0812DE9F3419C
:105AD0001E46184B054614460093F2B24FF08073F1
