:020000040800F2
:1000000000000520D5190008F1180008F3180008B1
:10001000F5180008F7180008F9180008000000009B
:10002000000000000000000000000000F196000841
:10003000FB1800080000000091970008F5970008E1
:10004000251A0008251A0008251A0008251A000894
:10005000251A0008251A0008251A0008251A000884
:10006000251A0008251A0008251A0008251A000874
:10007000251A0008251A0008251A0008251A000864
:10008000251A0008251A0008251A0008251A000854
:10009000251A0008251A0008251A0008251A000844
:1000A000251A0008251A0008251A0008251A000834
:1000B000251A0008251A0008251A0008251A000824
:1000C000251A0008251A0008251A0008251A000814
:1000D000251A0008251A0008251A0008251A000804
:1000E000251A0008251A0008251A0008251A0008F4
:1000F000251A0008251A0008251A0008251A0008E4
:10010000251A0008251A0008251A0008251A0008D3
:10011000251A0008251A0008FD180008251A0008ED
:10012000251A0008251A0008251A0008251A0008B3
:10013000251A0008251A0008251A0008251A0008A3
:10014000251A0008251A0008251A0008251A000893
:10015000251A0008251A0008251A0008251A000883
:10016000251A0008251A0008251A0008251A000873
:10017000251A0008251A0008251A000800000000AA
:10018000251A0008251A0008251A0008251A000853
:10019000251A0008251A0008251A0008251A000843
:1001A00009190008251A000815190008251A000861
:1001B000251A0008251A0008251A0008251A000823
:0801C000251A0008251A0008A9
:1001D00010B5054C237833B9044B13B10448AFF381
:1001E00000800123237010BD2401002000000000C6
:1001F0003CE6020808B5034B1BB103490348AFF3C3
:10020000008008BD00000000280100203CE6020834
:1002100001F0FF01102A2BDB10F0070F08D010F8B7
:10022000013B013A8B422DD010F0070F42B3F6D1BB
:10023000F0B441EA012141EA014122F007047FF0D4
:1002400000070023F0E80256083C85EA010586EA2B
:10025000010685FA47F5A3FA87F586FA47F6A5FA67
:1002600087F68EB9EED1F0BC01F0FF0102F0070273
:1002700032B110F8013B013A83EA010313B1F8D11E
:100280000020704701387047002D06BF35460338FF
:10029000073815F0010F07D1013015F4807F02BF38
:1002A000013015F4C03F0130F0BC0138704700BF89
:1002B00081F0004102E000BF83F0004330B54FEA17
:1002C00041044FEA430594EA050F08BF90EA020F84
:1002D0001FBF54EA000C55EA020C7FEA645C7FEA17
:1002E000655C00F0E2804FEA5454D4EB5555B8BF3A
:1002F0006D420CDD2C4480EA020281EA030382EAAB
:10030000000083EA010180EA020281EA0303362D3C
:1003100088BF30BD11F0004F4FEA01314FF4801C0F
:100320004CEA113102D0404261EB410113F0004F21
:100330004FEA03334CEA133302D0524263EB4303D8
:1003400094EA050F00F0A780A4F10104D5F1200E76
:100350000DDB02FA0EFC22FA05F2801841F10001D1
:1003600003FA0EF2801843FA05F359410EE0A5F1A5
:1003700020050EF1200E012A03FA0EFC28BF4CF0D6
:10038000020C43FA05F3C01851EBE37101F000458C
:1003900007D54FF0000EDCF1000C7EEB00006EEB99
:1003A0000101B1F5801F1BD3B1F5001F0CD3490823
:1003B0005FEA30004FEA3C0C04F101044FEA44527A
:1003C00012F5800F80F09A80BCF1004F08BF5FEA01
:1003D000500C50F1000041EB045141EA050130BDE1
:1003E0005FEA4C0C404141EB0101013C28BFB1F5F3
:1003F000801FE9D291F0000F04BF01460020B1FA3E
:1004000081F308BF2033A3F10B03B3F120020CDA10
:100410000C3208DD02F1140CC2F10C0201FA0CF0EE
:1004200021FA02F10CE002F11402D8BFC2F1200C53
:1004300001FA02F120FA0CFCDCBF41EA0C01904009
:10044000E41AA2BF01EB0451294330BD6FEA040452
:100450001F3C1CDA0C340EDC04F11404C4F120023D
:1004600020FA04F001FA02F340EA030021FA04F34F
:1004700045EA030130BDC4F10C04C4F1200220FAA6
:1004800002F001FA04F340EA0300294630BD21FAE4
:1004900004F0294630BD94F0000F83F4801306BFAA
:1004A00081F480110134013D4EE77FEA645C18BF9E
:1004B0007FEA655C29D094EA050F08BF90EA020F35
:1004C00005D054EA000C04BF1946104630BD91EA2D
:1004D000030F1EBF0021002030BD5FEA545C05D130
:1004E0004000494128BF41F0004130BD14F580046F
:1004F0003CBF01F5801130BD01F0004545F0FE41E3
:1005000041F470014FF0000030BD7FEA645C1ABF17
:10051000194610467FEA655C1CBF0B46024650EA4E
:10052000013406BF52EA033591EA030F41F400217A
:1005300030BD00BF90F0000F04BF0021704730B500
:100540004FF4806404F132044FF000054FF00001D5
:1005500050E700BF90F0000F04BF0021704730B596
:100560004FF4806404F1320410F0004548BF40426B
:100570004FF000013EE700BF42004FEAE2014FEAC0
:1005800031014FEA02701FBF12F07F4393F07F4F9B
:1005900081F06051704732F07F4208BF704793F09E
:1005A0007F4F04BF41F40021704730B54FF46074B1
:1005B00001F0004521F000411CE700BF50EA0102B4
:1005C00008BF704730B54FF000050AE050EA01025D
:1005D00008BF704730B511F0004502D5404261EBCD
:1005E00041014FF4806404F132045FEA915C3FF40E
:1005F000D8AE4FF003025FEADC0C18BF03325FEAAB
:10060000DC0C18BF033202EBDC02C2F1200300FA5B
:1006100003FC20FA02F001FA03FE40EA0E0021FA80
:1006200002F11444BDE600BF70B54FF0FF0C4CF46E
:10063000E06C1CEA11541DBF1CEA135594EA0C0F20
:1006400095EA0C0F00F0DEF82C4481EA030621EA5B
:100650004C5123EA4C5350EA013518BF52EA033596
:1006600041F4801143F4801338D0A0FB02CE4FF048
:100670000005E1FB02E506F00042E0FB03E54FF078
:100680000006E1FB03569CF0000F18BF4EF0010E70
:10069000A4F1FF04B6F5007F64F5407404D25FEA6C
:1006A0004E0E6D4146EB060642EAC62141EA55511F
:1006B0004FEAC52040EA5E504FEACE2EB4F1FD0C61
:1006C00088BFBCF5E06F1ED8BEF1004F08BF5FEADF
:1006D000500E50F1000041EB045170BD06F0004691
:1006E00046EA010140EA020081EA0301B4EB5C043E
:1006F000C2BFD4EB0C0541EA045170BD41F4801136
:100700004FF0000E013C00F3AB8014F1360FDEBF5A
:10071000002001F0004170BDC4F10004203C35DA36
:100720000C341BDC04F11404C4F1200500FA05F3B9
:1007300020FA04F001FA05F240EA020001F000425A
:1007400021F0004110EBD37021FA04F642EB0601D0
:100750005EEA430E08BF20EAD37070BDC4F10C04FA
:10076000C4F1200500FA04F320FA05F001FA04F2BE
:1007700040EA020001F0004110EBD37041F10001AA
:100780005EEA430E08BF20EAD37070BDC4F12005B5
:1007900000FA05F24EEA020E20FA04F301FA05F21D
:1007A00043EA020321FA04F001F0004121FA04F2C5
:1007B00020EA020000EBD3705EEA430E08BF20EA95
:1007C000D37070BD94F0000F0FD101F000464000CF
:1007D00041EB010111F4801F08BF013CF7D041EA51
:1007E000060195F0000F18BF704703F00046520055
:1007F00043EB030313F4801F08BF013DF7D043EA26
:100800000603704794EA0C0F0CEA135518BF95EADB
:100810000C0F0CD050EA410618BF52EA4306D1D162
:1008200081EA030101F000414FF0000070BD50EA81
:10083000410606BF1046194652EA430619D094EA0B
:100840000C0F02D150EA013613D195EA0C0F05D1F5
:1008500052EA03361CBF104619460AD181EA030149
:1008600001F0004141F0FE4141F470014FF0000001
:1008700070BD41F0FE4141F4780170BD70B54FF09C
:10088000FF0C4CF4E06C1CEA11541DBF1CEA13551C
:1008900094EA0C0F95EA0C0F00F0A7F8A4EB0504FE
:1008A00081EA030E52EA03354FEA013100F08880F5
:1008B0004FEA03334FF0805545EA131343EA1263BE
:1008C0004FEA022245EA111545EA10654FEA002673
:1008D0000EF000419D4208BF964244F1FD0404F52C
:1008E000407402D25B084FEA3202B61A65EB030588
:1008F0005B084FEA32024FF480104FF4002CB6EB45
:10090000020E75EB030E22BFB61A754640EA0C00C4
:100910005B084FEA3202B6EB020E75EB030E22BF04
:10092000B61A754640EA5C005B084FEA3202B6EB45
:10093000020E75EB030E22BFB61A754640EA9C0004
:100940005B084FEA3202B6EB020E75EB030E22BFD4
:10095000B61A754640EADC0055EA060E18D04FEA92
:10096000051545EA16754FEA06164FEAC30343EA32
:1009700052734FEAC2025FEA1C1CC0D111F4801FFF
:100980000BD141EA00014FF000004FF0004CB6E7F8
:1009900011F4801F04BF01430020B4F1FD0C88BF97
:1009A000BCF5E06F3FF6AFAEB5EB030C04BFB6EBA2
:1009B000020C5FEA500C50F1000041EB045170BD95
:1009C0000EF0004E4EEA113114EB5C04C2BFD4EBC2
:1009D0000C0541EA045170BD41F480114FF0000E46
:1009E000013C90E645EA060E8DE60CEA135594EAC2
:1009F0000C0F08BF95EA0C0F3FF43BAF94EA0C0FC5
:100A00000AD150EA01347FF434AF95EA0C0F7FF439
:100A100025AF104619462CE795EA0C0F06D152EA8D
:100A200003353FF4FDAE1046194622E750EA410671
:100A300018BF52EA43067FF4C5AE50EA41047FF482
:100A40000DAF52EA43057FF4EBAE12E74FEA4102E5
:100A5000B2F1E04324BFB3F5001CDCF1FE5C0DD91C
:100A600001F0004C4FEAC0024CEA5070B2F1004F66
:100A700040EB830008BF20F00100704711F0804F69
:100A800021D113F13872BCBF01F00040704741F42E
:100A900080114FEA5252C2F11802C2F1200C10FA32
:100AA0000CF320FA02F018BF40F001004FEAC12316
:100AB0004FEAD32303FA0CFC40EA0C0023FA02F3BA
:100AC0004FEA4303CCE77FEA625307D150EA013390
:100AD0001EBF4FF0FE4040F44000704701F0004060
:100AE00040F0FE4040F40000704700BF53B94AB9DF
:100AF000002908BF00281CBF4FF0FF314FF0FF3026
:100B000000F074B9ADF1080C6DE904CE00F006F800
:100B1000DDF804E0DDE9022304B070472DE9F04779
:100B2000089D04468E46002B4DD18A42944669D9D1
:100B3000B2FA82F252B101FA02F3C2F1200120FAB4
:100B400001F10CFA02FC41EA030E94404FEA1C4802
:100B5000210CBEFBF8F61FFA8CF708FB16E341EAFE
:100B6000034306FB07F199420AD91CEB030306F184
:100B7000FF3080F01F81994240F21C81023E6344A5
:100B80005B1AA4B2B3FBF8F008FB103344EA034449
:100B900000FB07F7A7420AD91CEB040400F1FF335E
:100BA00080F00A81A74240F207816444023840EA9B
:100BB0000640E41B00261DB1D4400023C5E90043D4
:100BC0003146BDE8F0878B4209D9002D00F0EF8057
:100BD0000026C5E9000130463146BDE8F087B3FA8A
:100BE00083F6002E4AD18B4202D3824200F2F98072
:100BF000841A61EB030301209E46002DE0D0C5E975
:100C0000004EDDE702B9FFDEB2FA82F2002A40F0C0
:100C10009280A1EB0C014FEA1C471FFA8CFE0126C3
:100C2000200CB1FBF7F307FB131140EA01410EFB67
:100C300003F0884208D91CEB010103F1FF3802D20E
:100C4000884200F2CB804346091AA4B2B1FBF7F008
:100C500007FB101144EA01440EFB00FEA64508D92B
:100C60001CEB040400F1FF3102D2A64500F2BB8068
:100C70000846A4EB0E0440EA03409CE7C6F12007B7
:100C8000B34022FA07FC4CEA030C20FA07F401FAFD
:100C900006F31C43F9404FEA1C4900FA06F3B1FB86
:100CA000F9F8200C1FFA8CFE09FB181140EA0141EB
:100CB00008FB0EF0884202FA06F20BD91CEB010188
:100CC00008F1FF3A80F08880884240F28580A8F1E0
:100CD00002086144091AA4B2B1FBF9F009FB101132
:100CE00044EA014100FB0EFE8E4508D91CEB0101D0
:100CF00000F1FF346CD28E456AD90238614440EA73
:100D00000840A0FB0294A1EB0E01A142C846A646F2
:100D100056D353D05DB1B3EB080261EB0E0101FA7B
:100D200007F722FA06F3F1401F43C5E900710026D8
:100D30003146BDE8F087C2F12003D8400CFA02FC2E
:100D400021FA03F3914001434FEA1C471FFA8CFE3E
:100D5000B3FBF7F007FB10360B0C43EA064300FB2E
:100D60000EF69E4204FA02F408D91CEB030300F1CC
:100D7000FF382FD29E422DD9023863449B1B89B283
:100D8000B3FBF7F607FB163341EA034106FB0EF30C
:100D90008B4208D91CEB010106F1FF3816D28B42B9
:100DA00014D9023E6144C91A46EA004638E72E4685
:100DB000284605E70646E3E61846F8E64B45A9D27D
:100DC000B9EB020864EB0C0E0138A3E74646EAE7EC
:100DD000204694E74046D1E7D0467BE7023B61449A
:100DE00032E7304609E76444023842E7704700BF03
:100DF0007047FF23436070477047000038B50446D2
:100E00000D4608484FF4006105F08CFF00230128CF
:100E10000BBF6360FF223023184614BF62602B7043
:100E200038BD00BF0020024010B5044608212CF058
:100E3000A5F8204610BD00000149002009F06CBE55
:100E4000591E000808B5642008F064F8FBE70000AC
:100E500010B594B01022002102240AA82CF04CF9FD
:100E60001422002103A82CF047F91D4B192108A8D2
:100E70001A6C42F080521A641B6C03F08053019389
:100E8000019B184B1A6842F440421A6001221B6809
:100E900003F440430293029B4FF48033CDE90823CF
:100EA0004FF48003CDE90E434FF4D873CDE91244DB
:100EB000CDE9101306F0ECFF06F09EFC0F23002096
:100EC0000721CDE903344FF4A053CDE905034FF4D6
:100ED000805303A8079307F0C7F914B010BD00BFF3
:100EE00000380240007000402DE980489BB010227D
:100EF000002101250DA84FF010492CF0FDF8002429
:100F000005F09EFBC64B0DA8ADF834501094CDE90A
:100F10000E9305F0B3FB17230DA88DF835508DF80F
:100F20003C308DF8425005F0A9FB042005F096FBFB
:100F3000BFF34F8FBFF36F8FBA4AC2F85042BFF36F
:100F40004F8FBFF36F8F536943F400335361BFF387
:100F50004F8FBFF36F8FC2F88440BFF34F8FD2F82B
:100F6000803043F6E074C3F3C900C3F34E335B0132
:100F700003EA0406014646EA81750139C2F8605267
:100F8000F9D2203B13F1200FF2D1BFF34F8F5369F9
:100F900043F480335361BFF34F8FBFF36F8F05F07E
:100FA000B3FA0024FFF754FF142200210DA82CF0FF
:100FB000A3F89D4B10219D481A6B01274FF0100894
:100FC0004FF0030B42F010024FF4805A984D4FF04F
:100FD00004091A631A6B974E02F010020292029AE9
:100FE0001A6B42F002021A631A6B02F002020392B9
:100FF000039A1A6B42F001021A631A6B02F00102A3
:101000000492049A1A6B42F040021A631A6B02F0BF
:1010100040020592059A1A6B42F400721A631A6B29
:1010200002F400720692069A1A6B42F008021A63E2
:101030001A6B02F008020792079A1A6B42F4806258
:101040001A631A6B02F480620892089A1A6B42F0D3
:1010500020021A631A6B02F020020992099A1A6B95
:1010600042F480721A631A6B02F480720A920A9A2E
:101070001A6B42F080021A631A6B02F080020B9224
:101080000B9A1A6B42F004021A6300221B6B03F0E6
:1010900004030C930C9B05F04BFE012208216648CB
:1010A00005F046FE01224FF48051644805F040FEF1
:1010B0000022C021624805F03BFE00224021614829
:1010C00005F036FE0DA95948CDE90D87CDE90F4B46
:1010D00005F0A2FC08230DA95748CDE90D37CDE94D
:1010E0000F4405F099FC0DA95448CDE90DA7CDE9B1
:1010F0000F4405F091FCC0220DA95148CDE90D2700
:10110000CDE90F4B05F088FC40220DA94D48CDE9F3
:101110000D27CDE90F4B05F07FFC4B484B498480F0
:1011200001600762C0E9054405F0D4FA4849284641
:10113000C5E90A44C5E90C44C5E90014C5E90244FF
:1011400005F06AFB39462846424D05F01DFC402358
:101150004FF4C07240493046B460F461B462C6E9ED
:1011600005324FF40062C6E9082A4FF0020A07224E
:10117000C6E900140DA9CDF84CA0C6E90398CDE945
:101180000DA2CDE90F92CDE911BA07F0C3FB2946B4
:101190004FF6FF7230460194C5E90078C5E9027444
:1011A00007F0D8FB384605F0D3F929464FF6FF7211
:1011B0003046C5E900A8C5E9027407F0CBFB082357
:1011C00029464FF6FF723046C5E900B8C5E902343A
:1011D00007F0C0FB4FF40C734FF6FF7229460193E2
:1011E0003046019BAF60EB60C5E9009807F0B2FBA9
:1011F00040F22B713046194D07F0CBFB4FF02043E6
:1012000043F2D202284640F215261A60144B154AC2
:101210002C62C5E90023C5E90247C5E9044423E07F
:101220001B00000300ED00E0003802400004024013
:101230007C010020FC020020002802400020024027
:10124000000802400018024058010020003002400F
:1012500000B0024040010020400100A0BC0100207D
:1012600068474020005C0040C5E9064405F0FFFEE9
:101270002146284606F0D8F8214628463D4D06F07E
:10128000F9F8342221460DEB02002BF035FF3A4BE2
:101290002821352040F2352CAC862C6185F836406B
:1012A000C5E900340923C5E905130B23C5E9070384
:1012B00040F21B132846C5E9096340F21D13C5E936
:1012C0000244C5E90BC306F081F9FF214FF4806E9B
:1012D0004FF4F0724FF4887328460D941893ADF8CC
:1012E00064408DF86640CDE912140521CDE914E182
:1012F0004FF04041CDE90E24CDE9161222460DA94A
:10130000CDE9103A06F02DFA1C481D4B0462C0E9E5
:101310000037C0E902984FF4A0634FF01808C0E905
:101320000644C0E9048306F077FB04F06BFF04F089
:10133000AFFE5C2005F070F900F04AFB00F073FB93
:1013400007F058FD0F4A21460F4807F08DFD0F4B5F
:101350000F4A214618600F4807F086FD0E4B0F4AD2
:10136000214618600E4807F07FFD0E4B186007F00D
:101370005BFDFEE70802002000680140B00200208B
:10138000001000A0B8E70208450E00085401002034
:1013900094E702082B1A000850010020DCE702083D
:1013A0007D320008300300200268034B9A4201D1CD
:1013B00005F0BCB8704700BF001000407047000047
:1013C0000D4B82B00F216FF001001A6C42F0805279
:1013D0001A641A6C02F080520092009A5A6C42F41D
:1013E00080425A6400225B6C03F480430193019BAA
:1013F00002B005F0D1B800BF00380240026882B0E8
:10140000084B9A420BD1D3F8302803F5006342F41D
:1014100080521A631B6B03F480530193019B02B04B
:10142000704700BF003002400E4B07B502689A4279
:1014300015D1A3F5F04305215A201A6B42F400029E
:101440001A6300221B6B03F400030193019B05F058
:10145000A3F85A2003B05DF804EB05F0CFB803B051
:101460005DF804FB00B0024010B5A8B00446142299
:10147000002102A82BF040FE8422002107A82BF0B7
:101480003BFE2268174B9A422AD14FF4803307A8BB
:10149000079306F0B7FF08B1FFF790FF124C4FF427
:1014A000C07201211148236B43F080032363236B37
:1014B00003F080030093009B1223CDE90223032352
:1014C000CDE90413042302A9069305F0A5FA236CC1
:1014D00043F400032364236C03F400030193019B92
:1014E00028B010BD005C004000380240001C0240E3
:1014F000026808B5094B9A420FD1094A8021094870
:10150000136C23F40003136405F06AFB4FF480713D
:101510000448BDE8084005F063BB08BD005C00401E
:1015200000380240001C024070B5ACB004461422E2
:10153000002106A82BF0E0FD842200210BA82BF04F
:10154000DBFD2268484B9A4240F08C80082305203E
:1015500001240B934FF4C07310930223CDE9113093
:101560004FF400330BA8CDE9154306F04BFF08B14B
:10157000FFF724FF3D4B002402250E265A6C06A9D6
:101580003B4842F080625A645A6C02F080620092DA
:10159000009A1A6B42F010021A631A6B02F01002E2
:1015A0000192019A1A6B42F400721A631A6B02F4E8
:1015B00000720292029A1A6B42F480621A631A6BEA
:1015C00002F480620392039A1A6B42F040021A639B
:1015D0001A6B02F040020492049A1A6B42F4807271
:1015E0001A631B6B03F480730593059B1023CDE9ED
:1015F0000635CDE908440A9605F00EFA4EF6FF735B
:1016000006A91C480A96CDE90635CDE9084405F03F
:1016100003FAF72306A918480A96CDE90635CDE95D
:10162000084405F0F9F94FF4805306A91348CDE9B1
:1016300006350923CDE908440A9305F0EDF94FF486
:10164000464306A90E480A96CDE90635CDE9084479
:1016500005F0E2F958202246052104F09DFF5820AC
:1016600004F0CCFF2CB070BD00680140003802408F
:1016700000100240002402400028024000180240EE
:1016800000200240142200212DE9F0418AB00446D6
:101690000DEB02002BF030FD22682C4B9A4251D109
:1016A0002B4B0225032409269A6B4FF0040805A949
:1016B000284842F0020200279A639A6B02F0020265
:1016C0000192019A1A6B42F010021A631A6B02F02F
:1016D00010020292029A1A6B42F002021A631A6B0B
:1016E00002F002020392039A1A6B42F008021A6394
:1016F0001B6B03F008030493049BCDE90585CDE93A
:10170000084605F089F9402305A91348CDE90535B8
:101710000A23CDE90774099305F07EF905A90E485F
:101720000996CDE90585CDE9077405F075F94FF403
:10173000605305A909480996CDE90535CDE9077437
:1017400005F06AF90AB0BDE8F08100BF001000A002
:10175000003802400010024000040240000C024029
:10176000026808B50B4B9A4213D10B4A04210B486F
:10177000936B23F00203936305F032FA4421084887
:1017800005F02EFA4FF460510648BDE8084005F018
:1017900027BA08BD001000A0003802400010024027
:1017A00000040240000C0240F0B5002387B0039310
:1017B000294B1E68002E4DD10122022703250C243F
:1017C0001A6001A9254B26489A6B42F001029A63E0
:1017D0009B6B03F001030093009B4FF68373CDE9ED
:1017E0000454CDE9013705F017F948F2331301A984
:1017F0001C480594CDE90137CDE9036505F00CF9E6
:101800004CF2037301A918480594CDE90137CDE9DD
:10181000036505F001F94FF63F0301A9134805944C
:10182000CDE90137CDE9036505F0F6F8282301A9D4
:101830000F480594CDE90137CDE9036505F0ECF8D3
:10184000082301A90B480594CDE90137CDE90365CB
:1018500005F0E2F807B0F0BD340300200038024084
:101860000010024000180240000C02400014024028
:10187000001C02400008024010B5014688B000225A
:10188000362004F089FE362004F0B8FE144B01A97E
:1018900003A81A6C134C42F010021A641B6C03F07C
:1018A00010030293029B06F08FFD06F07DFD0E4BA8
:1018B0004000236040F2E733E3600C4BB0FBF3F0F1
:1018C00001380023606020462361A36007F0D2F94D
:1018D00020B9204607F076F808B010BD0120FBE7DC
:1018E00000380240380300200010004040420F0042
:1018F0007047FEE7FEE7FEE7FEE77047014807F0A6
:10190000A3B800BF38030020014805F0CDBE00BFDA
:1019100008020020014804F0ADBF00BF7C01002098
:101920000120704708B52BF089FB162303604FF0A8
:10193000FF3008BD08B52BF081FB16230360FEE7DE
:1019400070B50D4614460E46731B9C4201DC2046C2
:1019500070BDAFF3008006F8010BF5E770B50D46DA
:1019600014460E46731B9C4201DC204670BD16F8DF
:10197000010BAFF30080F5E74FF0FF3070474FF4F5
:10198000005300204B6070470120704700207047D3
:101990000B4A0346116810B509B90A49116010686D
:1019A00009490A4C0344091B8B4206D92BF046FB1C
:1019B0000C2303604FF0FF3010BD1360FCE700BF45
:1019C00084030020887D012000000520000A00001B
:1019D00070470000DFF834D0002103E00C4B5B5867
:1019E000435004310B480C4B42189A42F6D30B4A31
:1019F00002E0002342F8043B094B9A42F9D304F079
:101A000099FC2BF033FBFFF76FFA704700000520BD
:101A10007C3D030800000020240100202401002058
:101A2000887D0120FEE701F083B801F0F5B8406839
:101A300070474160704700004FF0E022D2F8FC3D53
:101A400043F08073C2F8FC3D054B064AD3F8B01F43
:101A50000A43C3F8B02F1A6842F001021A607047B7
:101A6000001000E055CEACC5511A01EB5301B1FB9B
:101A7000F3F07047014B5868704700BF001000E05A
:101A8000704710B504460C212BF078FA204610BDA3
:101A9000036810B51B69044631B19847A2686368B2
:101AA0009B1A1844606010BD9847A060FBE70000D7
:101AB000024B7020024A1360DB68184710000020B8
:101AC00088030020704710B5044604212BF056FA15
:101AD000204610BD37B50A4D0C462B6813B90020BF
:101AE00003B030BD1B69702001929847019900280E
:101AF000F5D02B68702022465B6998470120EFE7FC
:101B0000880300207FB501238DF817204FF47A72E7
:101B1000CDE901320DF1170200920A46014605484F
:101B200005F00FFB10B1034805F0F2FA07B05DF8BD
:101B300004FB00BFBC0100207FB500230A464FF420
:101B40007A718DF817300123CDE901310DF11701BC
:101B500000910146054805F0ABFB10B1034805F0C4
:101B6000D7FA9DF8170007B05DF804FBBC01002010
:101B7000032823D8DFE800F0020B131A104B1021C2
:101B800010481A68B2FA82F2520905F0D1B80C4B2B
:101B900040215A68B2FA82F252090B48F5E7084B25
:101BA00080219A68B2FA82F25209F6E7044B40218A
:101BB0000648DA68B2FA82F25209E6E7704700BFD7
:101BC0008C0300200004024000080240001802407C
:101BD000032823D8DFE800F0020B131A104B102162
:101BE00010481A68003A18BF012205F0A1B80C4B42
:101BF00040215A68003A18BF01220B48F5E7084B0C
:101C000080219A68003A18BF0122F6E7044B402170
:101C10000648DA68003A18BF0122E6E7704700BFBD
:101C20008C0300200004024000080240001802401B
:101C300003280FD8DFE800F00206090B1021064840
:101C400005F07BB840210548FAE78021FBE74021F9
:101C50000348F5E7704700BF000402400008024057
:101C600000180240012380F8741080F87530704726
:101C70000020704741640039024B18BF01211970E0
:101C8000704700BFDB7A012000207047836B0BB1E7
:101C90000846184770474FF6FF7070474068036862
:101CA0009B6918477047000038B5044601F090F86A
:101CB00023682046D3F88850084BD4E90F12A84770
:101CC000074B084D63610023284684F84A30FFF72C
:101CD000B3FE0123256184F86C3038BD000000C0DC
:101CE000A80300209C03002001F04CB801F050B87C
:101CF00070B501F09FF810490023C1F88430BFF39C
:101D00004F8FD1F8803043F6E074C3F3C900C3F3BA
:101D10004E335B0103EA0406024646EA8275013A45
:101D2000C1F87452F9D2203B13F1200FF2D1BFF366
:101D30004F8FBFF36F8F70BD00ED00E001F088B8EA
:101D400000F0FCBF01F0A2B901F0AAB901F000B89F
:101D500010B5044617F012FD23682046D3F8AC30C6
:101D6000BDE81040184716F063BF10B504467C214B
:101D70002BF004F9204610BD90F877301BB1406875
:101D800003681B68184718467047000090F8341025
:101D90000D4B10B590F874401A788C4209D03AB9BE
:101DA0000A490B4A08881488108001220C801A7096
:101DB00010BD002AFCD0064A0449148808880C800B
:101DC00010800022F3E700BFD47A0120D27A0120EC
:101DD000D07A012070B50D46194635B9094B40F24D
:101DE000D221094A09482BF0F7F8C0E90F52003A0E
:101DF000074B18BF01221A700368BDE87040D3F882
:101E00008C30184740E8020878E80208C6E8020863
:101E1000DA7A012008B5094B1B888B4203D8084B9E
:101E20001B88934205D9074B9E21074A07482BF090
:101E3000D3F8074B1980074B1A8008BDD07A0120D0
:101E4000D27A01200BE902086EE90208C6E802080E
:101E5000D67A0120D87A0120014608B5034B1868CC
:101E600001B1012117F0A4FC012008BDDC7A01209A
:101E7000044B054A1A600022044B5A609A60044AD7
:101E80001A607047A80300205CE702089C0300204A
:101E900008E802080121002208B5084607F0F0F81A
:101EA0000A4B186028B90A4B28210A4A0A482BF025
:101EB00093F800220421012007F0A8F9074B1860CD
:101EC00018B9074B2C21034AF0E708BDB4030020E2
:101ED0008CEA0208D5EA020804EB0208B0030020ED
:101EE00050EB0208024B4FF0FF31186807F01EB9A3
:101EF000B4030020014B186807F052B9B403002066
:101F0000024B0021186807F011B900BFB40300208C
:101F1000FFF7F0BF0023034803491A46006807F0A3
:101F2000BBB900BFB00300200400002013B500239C
:101F3000074C01A91A46206807F0F0F94FF0FF336B
:101F4000002201A9206807F0E9F902B010BD00BF26
:101F5000B003002003685B6C1847012070470368DA
:101F60009B6A18470D4B82B01A6B42F400021A6349
:101F70001A6B02F400020192019A1A6942F40002FB
:101F80001A611A6922F400021A61054B054A1A61A6
:101F90004FF08062044B9A6002B0704700380240F4
:101FA0007C010020ED1F000800E100E040F2EF306E
:101FB00070470000054B4FF080620360044BC3F88C
:101FC0008820BFF34F8FBFF36F8F7047ECEC020890
:101FD00000E100E010B504464FF45A61FFF7EAFF54
:101FE00020462AF0CBFF204610BD0000024B1B68A4
:101FF000586803685B691847DC7A012070B50446AD
:102000000A4B0C30002625466022606026726672FC
:1020100045F8203B294617F01FFD04F55A63EE6092
:102020002435AB42FBD1204670BD00BFECEC02086A
:1020300008B50B290BD8DFE801F01206100A0A0ACE
:102040000A0808080808012008BD0520FCE7054B20
:102050006621054A05482AF0BFFF0020F4E7022068
:10206000F2E700BF92EB0208ADEB0208F7EB0208C3
:1020700008B50A2909D8DFE801F010060E0808089B
:10208000080606060600012008BD054B8721054A03
:1020900005482AF0A1FF0020F6E70220F4E700BF80
:1020A00092EB020841EC0208F7EB02082DE9F84335
:1020B0004F7F0C4681463946FFF7BAFF94F81E80E1
:1020C000054648464146FFF7B3FF414606464846A7
:1020D000FFF7CEFFA18A628B424B521A1A649A61B3
:1020E000228B521A1A61E28A586342EA014220693D
:1020F0005A646268D863DA60216894F81CC0802949
:102100004FEA0C6226D010D8202945EA020462D09A
:10211000402960D004295ED02A43324B474542F41F
:102120000032DA615BD0304A40E0B1F5807F07D001
:10213000B1F5007FF0D142F4003242F0090203E031
:1021400042F4003242F00A02DA61E2681A625E6228
:1021500058612AE0A4682A43211D42F40032D96262
:10216000DA6122785E62586142B1012A21D01F4BA8
:1021700040F211111E4A1F482AF02EFFDA69012091
:10218000618822F47F42013922F0100242EA0122E2
:10219000DA61144BDA6942F02002DA61DA699206F8
:1021A000FCD410229A600028BDD0134A1A60BDE802
:1021B000F8836288BCF1FF00D96902F1FF3418BFCF
:1021C000012021F47F4222F0100242EA042242F070
:1021D0001002DA61DDE744F40034DC61B7E740F275
:1021E0000122E3E700B00240010201008CEC02088A
:1021F000A6EC0208F7EB02080102020070B50C46DB
:10220000897FFFF735FF174BA68AE18A628B41EA87
:1022100006412569921B58635964DD631A64266878
:10222000E168082E0DD19A611A6158620E4A207F2A
:1022300042EA0062DA610D4A19625D61DD601A608E
:1022400070BD0022D86148091A610A0A00F4FC60D6
:10225000C1F3C40102F4784202430A439A63044A78
:10226000EDE700BF00B002400900010001020200DA
:1022700001020300034B1A68D207FCD423229A60A0
:10228000704700BF00B0024030B5104C2568ED0724
:10229000FCD423250904FF2BA56041F001014FF078
:1022A000020565636164E0630AD00949656241EA39
:1022B0000363E361074B22626061E060236030BD2D
:1022C000E561039BA363044BF8E700BF00B0024045
:1022D000090001000100020001000300406970478D
:1022E00090F844007047036B23B9C06A003818BFE8
:1022F000012070470120704780687047043010B596
:102300000C460FC884E80F0010BD704708B5034A9B
:1023100040F2F911024B03482AF05EFE34ED020848
:10232000EB0903088FED020810B5044648212AF096
:1023300025FE204610BD00002DE9F0431C46436BEE
:10234000ADF51F7D05460E461746002B52D00022E4
:1023500003A8DFF8A890CDE901320FF06BF94FF434
:10236000F4725021249024A809F085F83A463146A9
:1023700024A80AF019F8012124A809F085F90223FC
:1023800024A88DF8D83009F023FABDF898622B9B69
:10239000BDF89C729E4228BF1E46419B9F4206EBA1
:1023A000460828BF1F46A89BA3EB4606479B9F42B3
:1023B0001AD9012201A924A809F053FA6B6B03EB87
:1023C000080098420ED959789A78C90009EA022281
:1023D00001F4FC610A4313F8031B42EAD10224F81A
:1023E000022BEEE73444E1E724A809F06FF924A8B2
:1023F00009F08EF80DF51F7DBDE8F08300F8FFFFB2
:102400000A4A02600022C0E90522C0E90722C0E9A9
:102410000922C0E90B22C0E90D12C0E90F2280F8A1
:102420004420C0E90322C0E9012270476CF0020891
:1024300020B40D4611461A46036B3BB1036C806B0A
:10244000ED1A28445DF8045B2BF00CBBC06AF8E77A
:10245000036B10B573B1036C826BC91A5318525CCD
:1024600098785C780004DB7840EA0420104340EA66
:10247000036010BDC36A5858FBE7036B43B1036C9C
:10248000C91A836B5A18585C527840EA0220704788
:10249000C36A585A7047000070B50446006B0D4679
:1024A0001646D8B1E36B934208D209230D4A642142
:1024B0000D4884F844300D4B2AF08EFD0368DB682C
:1024C0009847206B3246A16B03681B69984710B987
:1024D0000D2384F84430A06B256470BDE06A084485
:1024E000FBE700BFF8ED02088FED0208E5ED0208FA
:1024F0002DE9F843436904462BB9234BA921234A0C
:1025000023482AF069FD08228169FFF7C5FFA16908
:10251000204643F23006043146F26437FFF798FF55
:102520000546A169A36A0D4405F108029A4224D226
:10253000636909350822204625F001010133A161B4
:102540006361FFF7A9FFD4F8188020464146FFF7E2
:1025500094FF814608F104012046FFF779FFB14559
:102560000546DED108F102012046FFF786FFB8429A
:10257000D7D1002DD5D0012004E0012300206361D4
:10258000236AA361BDE8F8833AEE020883EE0208ED
:102590008FED02082DE9F04F0446ADF51F7D8A4608
:1025A0001546816908229846FFF776FFA7692046FD
:1025B000391DFFF74DFF07F1080102460646204688
:1025C000FFF76AFF636B074633B93C4B4FF4CF719B
:1025D0003B4A3C482AF000FD002203A8CDE9013225
:1025E0000FF028F84FF4F4725021249024A808F03A
:1025F00042FF3246394624A809F0D6FE012124A81C
:1026000009F042F8022324A88DF8D83009F0E0F848
:10261000BAF90260479BB34205D2012201A924A85E
:1026200009F01FF9F6E7BAF900904FEA4808BAF83E
:1026300004702B9B08FB06554F44BAF80260DFF884
:1026400088B03FB29F4228BF1F46BAF8063009EB58
:10265000490A1E44419B36B29E4228BF1E46479BF4
:10266000B3421FD2012201A924A809F0FAF8626B33
:1026700049465244B94202F1030211D212F8020C47
:1026800012F8013CC0000BEA032300F4FC60034392
:1026900012F8030C43EAD00325F811300131E9E7C1
:1026A0004544DCE724A809F011F824A808F030FF1D
:1026B00001200DF51F7DBDE8F08F00BFB6EE0208CA
:1026C0000CEF02088FED020800F8FFFF01290368F4
:1026D00038BF0121DB6A70B50D4604469847A84211
:1026E00004D223682046DB6A984705466B1EE669DC
:1026F0001022204606EB031606F10801FFF7CCFE78
:1027000006F110012046FFF7A3FE236A043B0344B1
:10271000C4E9055370BD00002DE9F34100210446D2
:102720004822816180F84410FFF7B6FEA7690423B0
:10273000634A39462046FFF77BFE40B10323614AD6
:10274000F12184F84430604B60482AF045FC07F1E1
:10275000080104235E4A2046A161FFF769FE30B1FB
:102760000423584AF92184F844305A4BECE707F126
:102770000C010423584A2046A161FFF759FE064682
:1027800038B105234F4A4FF4807184F84430534BDD
:10279000DAE707F110012046FFF75AFE054620B997
:1027A0004F4B4FF48371474ACEE707F114080423D7
:1027B0004C4A20464146FFF73BFE00284BD00623FB
:1027C00084F844300423484A07F118012046FFF7F3
:1027D0002FFE002841D0072384F844304544434F5E
:1027E0000C2220462946FFF757FE05F10806042370
:1027F0003A4620463146FFF71BFE94F84430002845
:102800004AD0002B4AD1A36A291DAB424AD805F110
:102810000C03291D2046A3610191FFF719FE3044E6
:10282000019960622046FFF713FE06440422204609
:102830003146FFF731FE04232D4A31462046FFF78B
:10284000F7FD002839D10123E6616361A3692362A2
:1028500002B0BDE8F0810126B4E7002EBED007F13A
:1028600020012046FFF7F4FD4FF47A7307F13001A1
:10287000B0FBF3F060602046FFF7EAFD07F140018E
:10288000A0602046FFF7E4FD07F14401E060204628
:10289000FFF7DEFD2061A1E7002BB8D00A2384F802
:1028A0004430D5E72046FFF7D3FD08300C2205441D
:1028B00020462946FFF7F0FD97E70B23EFE700BF1F
:1028C00066EF020884EF02086BEF02088FED020842
:1028D000B1EF0208B6EF0208CEEF0208D3EF02080C
:1028E000E9EF0208F5EF0208FAEF0208FFEF02082D
:1028F00004F00208C0E90A2100220263FFF70CBFBE
:1029000010B5002304460846E3620B6821639B6808
:102910009847A0622046BDE81040FFF7FDBEF0B426
:10292000BDF81050BDF814602AB123B1CDE90456AA
:10293000F0BCFFF701BDF0BC704700002DE9FF4778
:102940009946436904460F4690462BB92A4B762197
:102950002A4A2B482AF040FB08228169FFF79CFD98
:10296000A669204606F1080A311DFFF771FDA36A2A
:1029700000EB0A0205469A4231D231462046FFF763
:102980007CFD43F2300398421DD1B11C2046FFF775
:1029900074FD46F26433984215D1A5B12A465146DA
:1029A0002046C4F818A0FFF777FD0C9B01462A4685
:1029B0002046CDF80080CDE901933B46FFF7AFFFFD
:1029C000636901336361A3692B448DB1A361A3697A
:1029D000626A013323F001039342A3610AD101200B
:1029E000236A6061A36180F0010004B0BDE8F08754
:1029F0000833EBE70020F6E73AEE020809F0020898
:102A00008FED0208012070470C2070470C2303FB58
:102A10000100083070470C2303FB010008307047A9
:102A20000120704742F66C30704742F66C3303FB6E
:102A300001000830704742F66C3303FB0100083098
:102A40007047012070471020704700EB01100830DC
:102A5000704700EB011008307047084600F074BD65
:102A6000034B10B50446036015F030FE204610BD40
:102A700014F1020810B50446FFF7F2FF14212046B6
:102A80002AF07CFA204610BD034B10B504460360C3
:102A900015F01CFE204610BDE0F0020810B50446FB
:102AA000FFF7F2FF42F6743120462AF067FA20461B
:102AB00010BD0000034B10B50446036015F006FE80
:102AC000204610BDACF0020810B50446FFF7F2FF37
:102AD000182120462AF052FA204610BD094B10B5A5
:102AE0000446036000F52E502030FFF7B9FF04F1D3
:102AF0002C00FFF7C9FF04F11400FFF7DBFF2046AD
:102B000010BD00BF48F1020808B50248FFF7E6FF14
:102B100008BD00BFBC03002010B50446FFF7DEFF70
:102B200042F6145120462AF029FA204610BD000032
:102B30002DE9F34100F03AFC0024054600F03AFC90
:102B4000234601462246284600941EF033F8264BC1
:102B5000264A2046264D1A6001F0D8FA25481DF075
:102B600091FF2B78BFF35B8FDB0736D428462AF022
:102B700007FA90B3204C214F214B04F1140007F1C8
:102B80001C0604F12C0823606060C4F80880E7602C
:102B9000266115F09DFD1B4B4046636115F098FDC5
:102BA000194B3846E36215F093FD04F50053174ABC
:102BB00003F6B430C3F8A02B02F08AFD224607F1D9
:102BC0001401304602F02AFD304600F0BDFC1048EA
:102BD0002AF020FA28462AF0DFF90E4802B0BDE8B4
:102BE000F041FFF761B800BF407B0120F03E0020BC
:102BF000B803002008000020BC0300205C2F002048
:102C000048F10208ACF00208E0F0020814F10208F2
:102C1000092B0008743E0020014816F070B800BF70
:102C2000743E002070B5234E234B244C3046244D77
:102C30002360FFF7E3F9284621F0C8F8214B002272
:102C40004FF4807120481A861A6683F86C201A6740
:102C5000DC60C3E912121D49C3E919124FF08071FB
:102C60005967012183F8781019490B604FF4F0710E
:102C70000180184801804FF488711748C3E9042285
:102C8000C3E90622C3E90822C3E90A22C3E90E22E6
:102C9000C3E91022C3E91422C3E91622C3E901657E
:102CA00001800E4883F8342001800D490A700D4AD6
:102CB0001A6070BDD430002030E80208D030002007
:102CC000F43E0020743E0020D07A01200100000173
:102CD000DC7A0120D67A0120D27A0120D87A01202C
:102CE000D47A0120BCE902080148FFF763B900BFAC
:102CF000D43000201049002370B5C1F88430BFF3F0
:102D00004F8FD1F8803043F6E074C3F3C900C3F3AA
:102D10004E335B0103EA0406024646EA8275013A35
:102D2000C1F87452F9D2203B13F1200FF2D1BFF356
:102D30004F8FBFF36F8F70BD00ED00E0034B90220B
:102D400083F85A2383F85823704700BF00E100E05E
:102D5000094A0A49D3680A48C3F30A03013B9BB2F4
:102D60000B801169C1F30A01013901801364536BAF
:102D700043F001035363704700680140703F002037
:102D80006E3F0020014BD3F8AC0070470068014053
:102D9000024B0122C3F8AC105A6270470068014030
:102DA000034B5B69DB0301D5FFF7A4BF704700BF8E
:102DB00000ED00E07047382301FB0331002343544A
:102DC00090F838300BB9036C83647047704700008B
:102DD00038B5044615F081FF23685D6E1AF094FE45
:102DE00001462046A8472368084A2046D3F8885061
:102DF0000023A2F57F31A847054B064A5A60064AD0
:102E00001A649A644FF4FF225A6438BD00F807C070
:102E10003C470020F446002000F40BC015F044BFEE
:102E200090F84B3013B1024B01221A7015F048BFD5
:102E30006C3F002008B515F001FF044B5B69DB0314
:102E400003D5BDE80840FFF755BF08BD00ED00E021
:102E500016F05DB810B5044658212AF08FF82046C8
:102E600010BD000008B531B1044B40F29711044A7F
:102E700004482AF0B1F890F8390008BD54F102086E
:102E800068F10208F5F2020810B531B1064B40F2C4
:102E90009111064A06482AF09FF8406811460368D7
:102EA000BDE810401B6B184754F1020837F30208C5
:102EB000F5F2020808B529B1034B7A21034A044808
:102EC0002AF08AF8006908BD54F10208E8F4020803
:102ED000F5F2020808B529B1054B8321054A0648D9
:102EE0002AF07AF841618160C0E9063208BD00BF6E
:102EF00054F10208A0F60208F5F2020810B50446E3
:102F000029B1274BA421274A27482AF065F8052A2A
:102F100034D8DFE802F003292F34393E40680368D3
:102F20001B69984750B34FF0FF31606D06F04EF8C3
:102F30000023012294F83E1084F83B3084F83920B5
:102F4000A360636101B1226284F83E306362E36A88
:102F50002BB90123206D84F83A3006F021F9606D19
:102F6000BDE8104006F062B8002380F8393084F8DC
:102F70003E3003E0036200238360436110BD0362BF
:102F8000002383604361F2E7002380F83930012396
:102F9000EDE7003B18BF012380F83D30EEE700BFAE
:102FA00054F102085FF80208F5F2020870B5044611
:102FB000164629B1314BE721314A32482AF00CF844
:102FC00090F8393033B1304B1B6893F86720436970
:102FD00013444361E36A002B4DD0E169D4E9053223
:102FE0005343A2684A43934220D2236A002B42D023
:102FF0004FF0FF31606D05F0E9FF236A0BB100234C
:10300000E362E36AFBB90125606D06F00FF894F8FE
:1030100039300BB9236A3BB1E36A2BB90123206D28
:1030200084F83A3006F0BCF8284670BD94F84C009D
:103030000028DDD09B1AB3FBF1F2994298BF02F150
:10304000FF326262D4E7002294F83C50A36230461B
:10305000E262E2682261A2680132A26033633368EF
:103060005B699847002DCED194F83D30002BCBD131
:1030700084F83950C8E70125C9E700BF54F10208B8
:1030800036FA0208F5F20208DC7A0120034B4FF011
:1030900080629A604FF080729A60704700E100E0B1
:1030A000084B4FF08062C3F88820BFF34F8FBFF307
:1030B0006F8F4FF08072C3F88820BFF34F8FBFF33C
:1030C0006F8F704700E100E038B590F838303BBBB7
:1030D00001228360C36082634FF480724361828700
:1030E0004FF4F0728361C361036243628362C3621F
:1030F0000363436380F83E30CA864FF4887281F8D8
:1031000034300A870B63826C036102F5FF24D0E937
:10311000101529448C420AD9084B5821084A03E06B
:10312000084B40F2F511084A084829F055FF0263A0
:1031300002F57F3284644263184638BD94FD02086C
:10314000D4FD0208DAFB02080AFC0208F5F20208C4
:1031500010B5144C236823B3134B144A1B6C11880D
:103160008B4213D1124B198804F028FB226892F885
:103170006630013382F86630FEF7CCFE206816F028
:10318000FDFA0020BDE81040FEF7F2BC04F016FB8B
:10319000206803681B6A98470020BDE81040FEF7CE
:1031A00017BD10BDDC7A012000680140703F00208F
:1031B0006E3F00202DE9F74304464FF4707894F8F1
:1031C0003A304FF0FF311BB9206D05F0AFFFF6E745
:1031D000606D05F0FBFE276BA36A266ABB4265683B
:1031E00008BF676B36B32B68314628465B6A984741
:1031F0000023236284F83B30606D05F017FF2B68D5
:103200004FF4F0723946CDF8008028465E694FF4DD
:103210008873B0474FF0FF310646606D05F0D6FE6B
:1032200094F83B30C3B1002384F83B30606D05F067
:10323000FDFEC4E7636A002BDED02B682846D3E985
:1032400009939847616A01442846C847A368626A9F
:1032500066621344A360CFE7E7625EB12B6828463D
:103260009B6A98470138E060002384F83C6084F84A
:103270003A30DBE70123E360F6E70000014808B5D8
:10328000FFF798FF3C4700200368042270B504460E
:103290005E6A00230D46B0474FF0FF31606D05F0C8
:1032A00095FE382101FB0543DA6A0AB10022DA6291
:1032B00001FB0545012385F83B30002385F83930B3
:1032C000606DBDE8704005F0B1BE38B500EB81031C
:1032D00004460D46114658680368DB68984729463E
:1032E0002046FFF7D1FF38BD70B50D4611460446A4
:1032F00000EB85025068026896681A46B047294676
:103300002046FFF7C1FF70BD38B5164900251648A5
:10331000FFF776F8154C164B01202A462946236004
:103320004FF48073A564A38784F84C0084F83E5062
:10333000C4E91055C4E91455C4E90155C4E903555D
:10334000C4E90555C4E90755C4E90955C4E90B5555
:10335000C4E90D5505F094FE2065284605F0F4FDFE
:10336000606538BD743F0020F44600203C470020D3
:1033700084FF0208704710B50446042129F0FEFDC1
:10338000204610BD012908B506D0022908D059B938
:1033900000F008FF006808BD00F004FF4068FAE78D
:1033A00000F000FF8068F6E70020F4E7004870476F
:1033B000CCFF02081320704713B5002451B10368F5
:1033C00001AA01948DF803409C680DF10303A04706
:1033D00002B010BD0846FBE74089704780897047FE
:1033E0008088704783798088184480B27047C0799C
:1033F00000F07F007047C079C0097047704710B572
:103400000446082129F0BAFD204610BD70477047D8
:1034100000F596730868496803C3704770477047A2
:103420004160704770470000064BC0F84401C0F887
:1034300048310023C0F84C3100F5A073C0F83C318E
:10344000704700BF4D380008012303727047704772
:10345000704710B441680346C2689B68541001EB82
:103460006200D20748BF0A595DF8044B48BFD358E1
:10347000184743682BB183682BB9C06800F001007E
:103480007047184670470120704710B504460C215C
:1034900029F074FD204610BD10B50446102129F016
:1034A0006DFD204610BD10B504464FF4AC7129F0F7
:1034B00065FD204610BD08B51AF026FBBDE80840A2
:1034C0001AF0C8BE10B50446D0F83C0158B10368E4
:1034D000DB68984738B1D4F83C0103689B6898478B
:1034E0000023C4F83C3110BDF8B5044617460E461B
:1034F0001AF02CFB104B00251C6029460F4BC4E929
:1035000054760F4E236030680E4BC4E95255C4E91F
:1035100050350368C4E94E559B689847284600F02B
:10352000F5FD336893F876200AB1D86C00B9986835
:1035300022F033FA2046F8BD307B0120A4060308B0
:10354000DC7A01208C060308064BC0F84401C0F861
:1035500048310023C0F84C3100F5A073C0F83C316D
:10356000704700BF4D380008064BC0F84401C0F852
:1035700048310023C0F84C3100F5A073C0F83C314D
:10358000704700BFFD360008064BC0F84401C0F884
:1035900048310023C0F84C3100F5A073C0F83C312D
:1035A000704700BFB135000803685B6A1847000028
:1035B0002DE9F14FD0E9545A0746A86803681B6A01
:1035C0009847B0F5AC7F05D2444BA321444A454807
:1035D00029F002FD686803681B6A98470F2803D822
:1035E000414BA4213E4AF2E7E86803681B6A98470A
:1035F0000B2803D83D4BA521394AE8E7DFF8F490C2
:103600001AF082FA1AF086FAD9F8000010B10368AD
:10361000DB689847D9F8000010B103681B68984729
:10362000DFF8D480D8F8000010B103685B699847D0
:10363000D7F8380110B103685B689847D8F80000E4
:1036400010B103681B689847D7F8380110B10368B8
:103650009B6898470021E868FFF7A6FF4FF0000B32
:10366000234B0446C0F804B05946036080F808B004
:10367000A86803685B6A9847064602F01FF8686806
:10368000594603685B6A98470546314601F0DEFFFC
:10369000C9F80040C7F83851C8F80060E5B12B1DE3
:1036A000CAF8003030463368C5F808A0DB68F56317
:1036B00098472B6828461B689847214630461BF0E0
:1036C000F5FE236820461B699847236820465B69FE
:1036D00001B0BDE8F04F18472B46E1E75801030859
:1036E000E6010308EC02030833030308D6030308CA
:1036F000F0060308247B0120207B01202DE9F14FF7
:10370000D0E9545A0746A86803681B6A984742F6EE
:103710006B33984205D8454BA321454A454829F0CB
:103720005BFC686803681B6A98470F2803D8424B04
:10373000A4213F4AF2E7E86803681B6A98470B2810
:1037400003D83E4BA5213A4AE8E7DFF8F8901AF093
:10375000DBF91AF0DFF9D9F8000010B10368DB6873
:103760009847D9F8000010B103681B689847DFF844
:10377000D880D8F8000010B103685B699847D7F883
:10378000380110B103685B689847D8F8000010B1A1
:1037900003681B689847D7F8380110B103689B6825
:1037A00098470021E868FFF7FFFE4FF0000B244B1D
:1037B0000446C0F804B05946036080F808B0A86811
:1037C00003685B6A9847064602F006F8686859463F
:1037D00003685B6A98470546314601F08DFFC9F8DA
:1037E0000040C7F83851C8F80060E5B12B1DCAF891
:1037F000003030463368C5F808A0DB68F5639847A9
:103800002B6828461B689847214630461BF04EFE21
:10381000236820461B699847236820465B6901B0EE
:10382000BDE8F04F18472B46E1E700BF58010308F9
:1038300079040308EC02030833030308D6030308E2
:10384000F0060308247B0120207B01202DE9F14FA5
:10385000D0E9545A0746A86803681B6A9847DB28D2
:1038600005D8454BA321454A454829F0B5FB686872
:1038700003681B6A98470F2803D8424BA4213F4A8C
:10388000F2E7E86803681B6A98470B2803D83E4BA9
:10389000A5213A4AE8E7DFF8F8901AF035F91AF06E
:1038A00039F9D9F8000010B10368DB689847D9F8F6
:1038B000000010B103681B689847DFF8D880D8F87B
:1038C000000010B103685B699847D7F8380110B160
:1038D00003685B689847D8F8000010B103681B685C
:1038E0009847D7F8380110B103689B6898470021C2
:1038F000E868FFF759FE4FF0000B244B0446C0F870
:1039000004B05946036080F808B0A86803685B6A91
:103910009847064602F050FB6868594603685B6AA0
:1039200098470546314602F02DFBC9F80040C7F81C
:103930003851C8F80060E5B12B1DCAF80030304698
:103940003368C5F808A0DB68F56398472B682846FC
:103950001B689847214630461BF0A8FD2368204687
:103960001B699847236820465B6901B0BDE8F04FAA
:1039700018472B46E1E700BF5801030883050308F9
:10398000EC02030833030308D6030308F006030818
:10399000247B0120207B012000207047818070471C
:1039A000C1807047018170474181704770477047FF
:1039B00070477047704710B4C4880368121B84882E
:1039C0005B6D091B12B25DF8044B09B218474FF644
:1039D000FF7383814FF0FF3303621368C36110608C
:1039E00070477047704770477047704790F82520C0
:1039F0001AB190F8242002B11860704730B585B034
:103A00000368044601816D460146D3F884303C3496
:103A10002846984795E8070084E8070005B030BDC0
:103A200030B585B00368044641816D460146D3F840
:103A300084303C342846984795E8070084E807001E
:103A400005B030BD0022028042808280C280704773
:103A500080F836107047036870B504461B6B154636
:103A600098472368204629465B6EBDE8704018479A
:103A700000207047806C70477047704770477047F0
:103A800030B444680346C2689B68551004EB62007A
:103A9000D20748BF625930BC48BFD3581847436863
:103AA0002BB183682BB9C06800F00100704718463D
:103AB00070470120704710B504464C2129F05EFA8A
:103AC000204610BD10B50446102129F057FA2046B3
:103AD00010BD10B504464FF4AC7129F04FFA2046E2
:103AE00010BD90F8252012B103685B691847704734
:103AF000036870B55E6B0446114B8DB21B682BB921
:103B0000104B6C21104A114829F066FA1049828D39
:103B10000988914203D80F4B6D210B4AF3E713F844
:103B200012200D4B1B6853F822000368DB6A98478C
:103B3000281A334601B22046BDE87040184700BF3E
:103B4000347B01200C0703084E070308890703088C
:103B5000387B0120D00703083C7B01206C30884271
:103B600008B505D119F0D0FFBDE80840FFF7ECBC5F
:103B700008BD00224FF0FF318260C0E9002170478C
:103B8000036870B504461B6B1546984723682046AA
:103B900029465B6BBDE87040184700000022C0E971
:103BA0000122C0E90322C0E90522C0E907224FF43F
:103BB00080728284014A0260704700BF5008030887
:103BC00010B504462622002129F096FA2046FFF778
:103BD000E5FF0A4B4FF47F0220462360084BA362A7
:103BE0004FF6FF73A3850023C4E90C324FF0FF3278
:103BF0002387E363C4E9102310BD00BF78340308B2
:103C0000500103082DE9F04F04468BB000251BF04E
:103C1000A1FA26466E4B26222946E56304F16C0A7A
:103C200046F8403B304629F067FA3046FFF7B6FFCA
:103C3000684B294626222364FF235046A56684F854
:103C4000663004F1A00829F057FA5046FFF7A6FFA6
:103C5000614A01234046E2664FF6FF7284F89030D5
:103C600004F1EC09A4F89A204FF07F4BA4F89C20B3
:103C700002AF84F89E20C4F8945084F89850FFF75F
:103C80009FFF564A4846C4F8E850C4F8A020FFF702
:103C900097FF534A29463046C4E95224514AC4E9A1
:103CA00054252A46FFF76CFF4FF4F0713046FFF7BA
:103CB00079FE4FF488713046FFF776FE2A46294692
:103CC0005046C4F868B0FFF75BFF052207A95046CD
:103CD000ADF81C20ADF8202008AA17F0C5F804F5AF
:103CE000A47265214046C4F894205022FFF748FF93
:103CF000D4F8A02041463846D2F88420C4F8D0B089
:103D0000A4F8D450904704F1DC0C04F59A7397E8BA
:103D100007008CE80700344A0193012312682AB98E
:103D2000324B6021324A334829F056F9324A128820
:103D3000012A03D8314B61212D4AF4E71946304B53
:103D4000186800F01FFA2F4A03460A2101981CF058
:103D50008BFE019B4046C4F8E83017F007F82A4B69
:103D6000022208A940460893ADF8242017F01EF857
:103D7000AD2248466B21FFF703FF49463846C4F899
:103D80001CB1A4F8205116F081FD04F5947C1E4B63
:103D900097E807008CE8070008A948460893ADF8A3
:103DA000245017F003F8201D3146019014F0A2FCB6
:103DB0005146019814F09EFC4146019814F09AFC7B
:103DC0000198494614F096FC20460BB0BDE8F08FF0
:103DD000600903080835030870350308B8080308AC
:103DE000480903085D3B0008347B01200C070308E9
:103DF0000E08030889070308387B0120D007030851
:103E0000407B01202026030850010308006A704708
:103E1000406A704770478B888069DB0A0A6850F8EF
:103E200023001044704710B5C2B1137BB3B1547B6B
:103E3000D27A240204F4E0641443C26998B202EB1B
:103E4000840213888B4202D192F9020010BD05D87A
:103E50000138043280B20028F3D1F7E70020F5E7FB
:103E600010B50446282129F089F8204610BD00002D
:103E700030B589B00446BDF850500695BDF84C5099
:103E800005959DF8405004959DF83C5003959DF88C
:103E9000385002959DF8345001959DF830500095AA
:103EA0001AF078FE064B20462360119BA361129BFB
:103EB000E361159B2362169B636209B030BD00BFAE
:103EC000940903087047000030B5154D8DB02C786B
:103ED000BFF35B8F14F001041ED1284629F050F87F
:103EE000D0B13F2301220F4907930F4B0F48069390
:103EF0000F4B089403940094CDE904430423CDE9C7
:103F00000944CDE901320A23FFF7B2FF094829F03D
:103F100081F8284629F040F804480DB030BD00BFB4
:103F20009447002028860F90883C0308984700207B
:103F3000443D0308C53E00087047000030B5154DEC
:103F40008DB02C78BFF35B8F14F001041FD128468D
:103F500029F016F8D8B13F232B220F4907930F4BB6
:103F60000F4806930F4B089405930123CDE90343B3
:103F700002930423CDE90944CDE900331423FFF76C
:103F800077FF094829F046F8284629F005F8044843
:103F90000DB030BDC047002038860F908C3C030820
:103FA000C4470020483D0308393F0008704700001F
:103FB00030B5154D8DB02C78BFF35B8F14F0010434
:103FC0001ED1284628F0DCFFD0B13F2301220F4943
:103FD00007930F4B0F4806930F4B089403940094DC
:103FE000CDE904430423CDE90944CDE90132282376
:103FF000FFF73EFF094829F00DF8284628F0CCFFCE
:1040000004480DB030BD00BFEC47002094880F90ED
:10401000403D0308F04700204C3D0308AD3F000839
:1040200000207047002070470EB403B503AB002199
:1040300053F8042B01931AF0DDFB02B05DF804EB9A
:1040400003B070470CB407B504AB53F8042B0193CD
:104050001AF0D0FB03B05DF804EB02B0704700002B
:10406000436C10B5044673B3038F2BB9184BC021B2
:10407000184A194828F0B0FFC38E00EB43035B8C4D
:104080000BB31BF043FF238F012B03D8134BC52128
:10409000134AEEE7E28E40F63F10531C9BB2092B09
:1040A000194688BFA3F10A0104EB4101498C814202
:1040B00009D10A2B04EB420228BF0023508C04EBE9
:1040C0004303588451842046BDE810401BF020BEB5
:1040D000E4090308ED090308980A0308E20A030843
:1040E000F00A03081BF0DDBD10B586B002AC84E811
:1040F00006001A460AAB214605930193099B0093DB
:10410000089B19F01BF806B010BD000038B518BBAD
:10411000124B13481B681349B3B11A689C681A44C0
:104120001C4402605A681A440A600F4B00221A802D
:1041300000F038F8054600F033F80C4B1C600C4BCF
:104140001D600C4B188007E00B4B03600B4B0B60A2
:104150000B4B1C68002CE8D138BD00BF184800206C
:104160001C4800202048002024480020347B0120E7
:104170003C7B0120387B0120B0880F90A4880F90F1
:1041800028890F90044B1B6853F82100034B1B68D0
:1041900003EB4000704700BF204800201C4800206F
:1041A00003207047004870472848002010B5054C90
:1041B000FFF7C4FE2060FFF7FBFE6060FFF784FEA0
:1041C000A06010BD28480020806A7047002070471A
:1041D0008B88838001207047704770477047704715
:1041E0007047704770477047704770477047704717
:1041F0007047704770477047704770477047704707
:1042000070477047704770477047704770477047F6
:1042100070477047704770477047704770477047E6
:104220007047704790F82C304BB100F16C02126867
:10423000C2653BB100F174031B680366704700F16F
:104240006802F4E700F17003F6E7704770477047C3
:1042500030B444680346C2689B68551004EB6200A2
:10426000D20748BF625930BC48BFD358184743688B
:104270002BB183682BB9C06800F001007047184665
:1042800070470120704730B444680346C2689B6899
:10429000551004EB6200D20748BF625930BC48BFDA
:1042A000D358184743682BB183682BB9C06800F016
:1042B00001007047184670470120704790F82D3074
:1042C00080F85A30704710B50446782128F056FE21
:1042D000204610BD10B50446102128F04FFE2046A0
:1042E00010BD10B50446102128F048FE204610BD30
:1042F00010B5044642F6741128F040FE204610BD69
:1043000010B50446006B50B10368DB68984730B1C4
:10431000206B21460368BDE810409B68184710BD1C
:10432000D0F8303D01330F2BC0F8303D10B50446B6
:1043300006D10368D3F8B03098470023C4F8303D65
:1043400010BD302903D10368D3F8AC30184770474B
:1043500000F5B8620346914202D10368DB6A184750
:1043600000F2F452914202D103681B6BF7E700F5AB
:10437000C562914202D103685B6BF0E700F25C62B8
:10438000914202D103689B6BE9E700F5D26291424A
:1043900002D10368DB6BE2E700F2C462914202D112
:1043A00003681B6CDBE700F5DF62914202D1036812
:1043B0005B6CD4E700F22C72914202D103689B6CD3
:1043C000CDE700F5EC62914202D10368DB6CC6E7F1
:1043D00000F29472914203D10268126D18461047A0
:1043E00000F5F962914202D10268526DF6E700F2DF
:1043F000FC72914202D10268926DEFE700F5036210
:10440000914202D10268D26DE8E700F6640291425F
:1044100002D10268126EE1E700F69802914202D1E1
:104420000268526EDAE700F6CC02914202D10268CD
:10443000926ED3E700F51062914202D10268D26E0B
:10444000CCE700F63412914202D10268126FC5E740
:1044500000F66812914202D10268526FBEE700F680
:104460009C12914202D10268926FB7E700F51D627B
:10447000914202D10268D26FB0E700F60422914265
:1044800003D10268D2F88020A8E700F638229142D2
:1044900003D10268D2F88420A0E700F66C22914292
:1044A00003D10268D2F8882098E700F52A62914289
:1044B00003D10268D2F88C2090E700F6D422914212
:1044C00003D10268D2F8902088E700F608329142C2
:1044D00003D10268D2F8942080E700F63C32914282
:1044E00003D10268D2F8982078E700F5376291424C
:1044F00003D10268D2F89C2070E700F6A432914202
:1045000003D10268D2F8A02068E700F6D8329142C1
:1045100003D10268D2F8A42060E700F60C42914271
:1045200003D10268D2F8A82058E770470B7970B51C
:1045300004460D4690F82C609BB98EB9B3FA83F30C
:1045400020465B0984F82C302368D3F88C309847D8
:10455000236820465B69984716B12B79012B03D05D
:1045600070BD002EFCD0E9E723682046D3F88830E0
:10457000BDE87040184700F54462914210B505D17E
:104580000368BDE81040D3F8B430184700F6B843CC
:10459000994205D119F0B8FABDE81040FEF7F4BF12
:1045A00010BD0000074A02600022C0E90122C0E9F4
:1045B0000322C0E90522C0E907224FF480728284F9
:1045C000704700BF1437030870B504461D46BDF997
:1045D0001060FFF7D5FA2368294620469B6B984761
:1045E000236831462046DB6BBDE870401847000069
:1045F00010B504462622002128F07EFD2046FFF754
:10460000D1FF044B20462360FF2384F8263000238B
:10461000A36210BD08350308002370B5124E05468D
:104620008380124B0360336893F876200AB1D86C0C
:1046300000B998680368DB6A98473368B0FA80F479
:10464000D86C640930B10368DB6A9847002808BF5A
:1046500044F001042CB9064B2C21064A064828F0E8
:10466000BBFC284670BD00BFDC7A0120C40C0308E7
:10467000C20B0308200C0308590C030838B5044684
:104680000D46FFF7C9FF034B2046E5602360243346
:10469000A36038BD3032030810B50446262200213D
:1046A00028F02AFD2046FFF77DFF00232046A36265
:1046B00084F82C30012384F82430044B23604FF617
:1046C000FF73E385238684F8323010BD703503080C
:1046D00070B50446FFF766FF4FF47F43002526467A
:1046E000A3850123A56284F824300D4B256346F889
:1046F000343B3046FFF77CFF0A4B2A4629463046BA
:1047000063632566A4F86450C4E91A55C4E91C55CE
:10471000FFF736FA2046314613F0ECFF204670BD15
:10472000E40C0308E43503085201490115F0BEBC4E
:104730005201490115F0C5BC10B4C46B4A01B4EB79
:10474000411F04D05DF8044BC26315F0B9BB5DF89E
:10475000044B70472DE9F04F044600254FF488764E
:104760004FF07F4904F5847A04F23C5B4FF0040873
:1047700005272DED108BABB01AF0ECFC2246E64B72
:10478000E56342F8403B10460CEE902AFFF730FFFD
:1047900004F16C0329A90DEE103A4FF6FF731DEEDC
:1047A000100AADF8A43015F09DFD04F198031846E9
:1047B00008EE103A15F064FB29465046FFF75EFFFD
:1047C00004F58E73184608EE903A15F059FB04F57F
:1047D000C673294618461F93FFF750FF04F5D073A0
:1047E000184609EE103A15F04BFB04F50473294600
:1047F00018462093FFF742FF04F50973184609EEA7
:10480000903A15F03DFB04F525732946184621938F
:10481000FFF734FF04F52A7318460AEE103A15F034
:104820002FFB04F54673294618462293FFF726FF0F
:1048300004F54B7318460AEE903A15F021FB04F587
:104840006773294618462393FFF718FF04F56C7326
:1048500018460BEE103A15F013FB04F58463294655
:1048600018462493FFF70AFF04F2344318460BEE70
:10487000903A15F005FB04F2A44329461846259307
:10488000FFF7FCFE04F5976318460CEE103A15F09E
:10489000F7FA04F5A563294618462693FFF7EEFEBE
:1048A000584615F0EDFA04F2AC5329461846279302
:1048B000FFF7E4FE04F5B86318460DEE903AFFF7F3
:1048C000EBFE04F2F45318460EEE103AFFF7E4FE46
:1048D00004F5C56318460EEE903AFFF7DDFE04F2CC
:1048E0005C6318460FEE103AFFF7D6FE04F5D2636C
:1048F00018460FEE903AFFF7CFFE04F2C463184655
:104900000293FFF7C9FE04F5DF6318460393FFF730
:10491000C3FE04F22C7318460493FFF7BDFE04F5A2
:10492000EC6318460593FFF7B7FE04F2947318463C
:104930000693FFF7B1FE04F5F96318460793FFF7F6
:10494000ABFE04F2FC7318460893FFF7A5FE04F5CE
:10495000036318460993FFF79FFE04F664031846A5
:104960000A93FFF799FE04F6980318460B93FFF796
:1049700093FE04F6CC0318460C93FFF78DFE04F566
:10498000106318460D93FFF787FE04F6341318469C
:104990000E93FFF781FE04F6681318460F93FFF796
:1049A0007BFE04F69C1318461093FFF775FE04F582
:1049B0001D6318461193FFF76FFE04F60423184693
:1049C0001293FFF769FE04F6382318461393FFF796
:1049D00063FE04F66C2318461493FFF75DFE04F59E
:1049E0002A6318461593FFF757FE04F6D42318469A
:1049F0001693FFF751FE04F6083318461793FFF796
:104A00004BFE04F63C3318461893FFF745FE04F5B9
:104A1000376318461993FFF73FFE04F6A433184690
:104A20001A93FFF739FE04F6D83318461B93FFF7A5
:104A300033FE04F60C4318461C93FFF72DFE04F5D5
:104A4000446318461D93FFF743FE04F6B843184627
:104A50001E93FFF73DFE314B04F65450C4F8305D11
:104A6000C4F8343D4FF4E1512D4BC4F8405DC4F817
:104A70003C3D2C4BC4F8505DC4F8443D2A4BC4F86F
:104A8000384DC4F84C3DC4F8484D17F01DFB2A467C
:104A90004FF4F07329461CEE900A0096FFF794FD40
:104AA00029A91DEE100AC4F86890ADF8A48016F08C
:104AB00019FC2A464FF4F07329461DEE100A0096A1
:104AC000FFF782FD29461DEE100A15F0D2FB4FF4C8
:104AD000F073294618EE100A42220097FFF774FD82
:104AE0002A46294618EE100AC4F81491A4F8185161
:104AF000C4F8C0A04FF0060AFFF716FE2A4618EECB
:104B0000100A4FF4F071FFF713FE414618EE100A39
:104B1000FFF712FE0AE000BFB00D0308800D030886
:104B200051430008980D03087745000818EE100A55
:104B3000012115F0D1FA294618EE900A4FF4F073CE
:104B4000CC220097FFF740FD1F9B2A462946C4F858
:104B5000443118EE900AC4F89891A4F89C51FFF7DC
:104B6000E3FD2A4618EE900A4FF4F071FFF7E0FDDE
:104B7000414618EE900AFFF7DFFD18EE900A01217A
:104B800015F0AAFA294619EE100A4FF4F07386229E
:104B90000097FFF719FD209B2A462946C4F8C83123
:104BA00019EE100AC4F81C92A4F82052FFF7BCFDBD
:104BB0002A4619EE100A4FF4F071FFF7B9FD41468D
:104BC00019EE100AFFF7B8FD19EE100A012115F0D1
:104BD00083FA3B462A4619EE900A00963A21FFF7DF
:104BE000F3FC219B2A462946C4F84C3219EE900A60
:104BF000C4F8A092A4F8A452FFF796FD32462946C5
:104C000019EE900AFFF794FD414619EE900AFFF75E
:104C100093FD294619EE900A15F05EFA3B462A46A6
:104C20001AEE100A00967621FFF7CEFC229B2A4648
:104C30002946C4F8D0321AEE100AC4F82493A4F816
:104C40002853FFF771FD324629461AEE100AFFF786
:104C50006FFD41461AEE100AFFF76EFD29461AEE67
:104C6000100A15F039FA3B462A461AEE900A0096C9
:104C7000B221FFF7A9FC239B2A462946C4F85433E6
:104C80001AEE900AC4F8A893A4F8AC53FFF74CFDB1
:104C9000324629461AEE900AFFF74AFD41461AEEBF
:104CA000900AFFF749FD29461AEE900A15F014FA0A
:104CB0003B462A461BEE100A0096EE21FFF784FCC5
:104CC000249B2A462946C4F8D8331BEE100AC4F8A0
:104CD0002C94A4F83054FFF727FD324629461BEEEA
:104CE000100AFFF725FD41461BEE100AFFF724FDD1
:104CF00029461BEE100A15F0EFF93B462A461BEE3B
:104D0000900A00964FF49571FFF75EFC259B2A46AA
:104D10002946C4F85C341BEE900AC4F8B094A4F899
:104D2000B454FFF701FD324629461BEE900AFFF707
:104D3000FFFC41461BEE900AFFF7FEFC29461BEEE6
:104D4000900A15F0C9F93B462A461CEE100A009657
:104D50004FF4B371FFF738FC269B2A462946C4F866
:104D6000E0341CEE100AC4F83495A4F83855FFF767
:104D7000DBFC324629461CEE100AFFF7D9FC4146FF
:104D80001CEE100AFFF7D8FC29461CEE100A15F09D
:104D9000A3F93B462A46584600964FF4D171FFF7D7
:104DA00013FC279B2A462946C4F864355846C4F8A4
:104DB000B8954FF00709A4F8BC55FFF7B5FC32468B
:104DC00029465846FFF7B4FC4146584604F6345885
:104DD000FFF7B2FC2946584615F07EF929461DEE2C
:104DE000900A0322FEF7CCFE29AA28A91DEE900AFC
:104DF000ADF8A0A0ADF8A49016F036F81EEE100A9B
:104E0000C4F8E88503223C21FEF7BAFE29AA28A9A6
:104E10001EEE100AADF8A0A0ADF8A49016F024F88C
:104E20001EEE900AC4F81C8603227821FEF7A8FE25
:104E300029AA28A91EEE900AADF8A0A0ADF8A4906A
:104E400016F012F81FEE100AC4F850860322B221A1
:104E5000FEF796FE29AA28A91FEE100AADF8A0A019
:104E6000ADF8A49016F000F81FEE900AC4F88486FE
:104E70000322EE21FEF784FE29AA28A91FEE900A3C
:104E8000ADF8A0A0ADF8A49015F0EEFF02980322B3
:104E9000C4F8B8864FF49571FEF772FE29AA28A9C6
:104EA0000298ADF8A0A0ADF8A49015F0DDFF03982E
:104EB0000322C4F8EC864FF4B371FEF761FE29AA11
:104EC00028A90398ADF8A0A0ADF8A49015F0CCFFE8
:104ED00004980322C4F820874FF4D171FEF750FEE6
:104EE00029AA28A90498ADF8A0A0ADF8A49015F0BF
:104EF000BBFF29460598C4F854874722FEF740FEB9
:104F000029AA28A90598ADF8A0A0ADF8A49015F09D
:104F1000ABFF06984722C4F888873C21FEF730FE95
:104F200029AA28A90698ADF8A0A0ADF8A49015F07C
:104F30009BFF07984722C4F8BC877821FEF720FE24
:104F400029AA28A90798ADF8A0A0ADF8A49015F05B
:104F50008BFF08984722C4F8F087B221FEF710FEB5
:104F600029AA28A90898ADF8A0A0ADF8A49015F03A
:104F70007BFF09984722C4F82488EE21FEF700FE43
:104F800029AA28A90998ADF8A0A0ADF8A49015F019
:104F90006BFF0A984722C4F858884FF49571FEF7C2
:104FA000EFFD29AA28A90A98ADF8A0A0ADF8A49011
:104FB00015F05AFF0B984722C4F88C884FF4B37150
:104FC000FEF7DEFD29AA28A90B98ADF8A0A0ADF840
:104FD000A49015F049FF0C984722C4F8C0884FF4FC
:104FE000D171FEF7CDFD29AA28A90C98ADF8A0A093
:104FF000ADF8A49015F038FF0D988B22C4F8F48812
:105000000121FEF7BDFD29AA28A90D98ADF8A0A0A1
:10501000ADF8A49015F028FF0E988B22C4F82889CB
:105020003D21FEF7ADFD29AA28A90E98ADF8A0A054
:10503000ADF8A49015F018FF0F988B22C4F85C8986
:105040007921FEF79DFD29AA28A90F98ADF8A0A007
:10505000ADF8A49015F008FF10988B22C4F8908941
:10506000B321FEF78DFD29AA28A91098ADF8A0A0BC
:10507000ADF8A49015F0F8FE11988B22C4F8C489FD
:10508000EF21FEF77DFD29AA28A91198ADF8A0A06F
:10509000ADF8A49015F0E8FE12988B22C4F8F889B8
:1050A00040F22B11FEF76CFD29AA28A91298ADF841
:1050B000A0A0ADF8A49015F0D7FE13988B22C4F8E9
:1050C0002C8A40F26711FEF75BFD29AA28A91398E4
:1050D000ADF8A0A0ADF8A49015F0C6FE14988B22F0
:1050E000C4F8608A40F2A311FEF74AFD29AA28A954
:1050F0001498ADF8A0A0ADF8A49015F0B5FE29461F
:105100001598C4F8948AD122FEF73AFD29AA28A955
:105110001598ADF8A0A0ADF8A49015F0A5FE1698CE
:10512000D122C4F8C88A3D21FEF72AFD29AA28A960
:105130001698ADF8A0A0ADF8A49015F095FE1798BC
:10514000D122C4F8FC8A7921FEF71AFD29AA28A9E0
:105150001798ADF8A0A0ADF8A49015F085FE1898AA
:10516000D122C4F8308BB321FEF70AFD29AA28A961
:105170001898ADF8A0A0ADF8A49015F075FE199898
:10518000D122C4F8648BEF21FEF7FAFC29AA28A9E2
:105190001998ADF8A0A0ADF8A49015F065FE1A9886
:1051A000D122C4F8988B40F22B11FEF7E9FC29AA12
:1051B00028A91A98ADF8A0A0ADF8A49015F054FE57
:1051C0001B98D122C4F8CC8B40F26711FEF7D8FCB3
:1051D00029AA28A91B98ADF8A0A0ADF8A49015F0B5
:1051E00043FE1C98D122C4F8008C40F2A311FEF7B4
:1051F000C7FC29AA28A91C98ADF8A0A0ADF8A490D6
:1052000015F032FE2A46294604F67440C4F8348C60
:1052100000964FF4EF73FFF7D7F9DFF82CA2894B14
:10522000DFF82892DFF828821D98C4F8A83CA4F87B
:10523000A47CC4F8ACACC4F8B09CC4F8B48CFEF741
:10524000F1FF009604F644562A4629461D984FF46D
:10525000EF73FFF7B9F92A4629462B4604F6EC40CE
:1052600084F8655C84F86D5C84F89A5C0095C4F8F9
:10527000706CFFF7A9F9734B1E98C4F8203DA4F891
:105280001C7DC4F824ADC4F8289DC4F82C8DFEF70D
:10529000C9FF2B462A4629460095251D1E98FFF773
:1052A00093F91CEE901A2846C4F8E86C13F022FA21
:1052B0001DEE101A284613F01DFA18EE101A284693
:1052C00013F018FA18EE901A284613F013FA19EE94
:1052D000101A284613F00EFA19EE901A284613F009
:1052E00009FA1AEE101A284613F004FA1AEE901A68
:1052F000284613F0FFF91BEE101A284613F0FAF9AE
:105300001BEE901A284613F0F5F91CEE101A2846E9
:1053100013F0F0F95946284613F0ECF91DEE901AF7
:10532000284613F0E7F91EEE101A284613F0E2F9AA
:105330001EEE901A284613F0DDF91FEE101A2846CB
:1053400013F0D8F91FEE901A284613F0D3F90299FA
:10535000284613F0CFF90399284613F0CBF90499A6
:10536000284613F0C7F90599284613F0C3F90699A2
:10537000284613F0BFF90799284613F0BBF908999E
:10538000284613F0B7F90999284613F0B3F90A999A
:10539000284613F0AFF90B99284613F0ABF90C9996
:1053A000284613F0A7F90D99284613F0A3F90E9992
:1053B000284613F09FF90F99284613F09BF910998E
:1053C000284613F097F91199284613F093F912998A
:1053D000284613F08FF91399284613F08BF9149986
:1053E000284613F087F91599284613F083F9169982
:1053F000284613F07FF91799284613F07BF918997E
:10540000284613F077F91999284613F073F91A9979
:10541000284613F06FF91B99284613F06BF91C9975
:10542000284613F067F91D99284613F063F92846BA
:105430001E9913F05FF920462BB0BDEC108BBDE830
:10544000F08F00BF996600FFCC9900FF663300FF24
:10545000996633FF70477047704730B4446803461D
:10546000C2689B68551004EB6200D20748BF6259BE
:1054700030BC48BFD358184743682BB183682BB959
:10548000C06800F00100704718467047012070475F
:1054900010B50446102127F071FD204610BD10B54F
:1054A0000446DC2127F06AFD204610BD6C3088429E
:1054B00008B505D118F028FBBDE80840FEF754B840
:1054C00008BD00002DE9F043044687B019F042FE04
:1054D00000252746424BE56304F1A00647F8403B10
:1054E00005A9404B304625664FF48879A56604F13E
:1054F0006C08C4F8945084F89850C4E910354FF4FF
:105500008073A4F86430FF2384F8663040F20113FE
:10551000A4F89030344BE3664FF6FF73C4E912559C
:10552000A4F89A30A4F89C3084F89E30ADF814307A
:10553000C4E91455C4E91655C4E91C55C4E91E55FF
:10554000C4E92055C4E9225514F0CCFE274B2A4665
:1055500029463846CDF80090C4E93334244BC4E9D9
:1055600035354FF4F073FFF72FF84FF07F432A469D
:1055700029464046A366FEF703FB042305AA04A9B7
:105580004046ADF81030ADF8143015F06DFC04F164
:10559000CC0305A93046C4F894301223ADF814307A
:1055A00015F0A0FE4FF4F0732A4629463046CDF898
:1055B0000090FFF709F82946304614F05AFE201DE6
:1055C0003946039013F096F84146039813F092F889
:1055D0000398314613F08EF8204607B0BDE8F083FB
:1055E000880E03080835030870350308700E030899
:1055F000AD540008704710B504464FF4AC7127F065
:10560000BDFC204610BD10B50446D0F8540100F092
:1056100063F82046BDE8104018F024B910B50446E0
:10562000FDF762FF014B2046236010BDBC0E03084E
:10563000704704387047704710B50446102127F0B2
:105640009DFC204610BDA0F10400F5E70022C160DA
:105650008260044A10B502F10804203204604260FE
:1056600010BD00BF000F03087047704713B5044614
:10567000FEF703FA0B490622E36B9B6818790A4B85
:10568000002818BF194604F59A701AF088FE04F134
:10569000A000019015F06AFB019802B0BDE810402F
:1056A00019F0CAB9280F03082C0F030810B50446D7
:1056B0004FF4AC7127F062FC204610BD10B50446D3
:1056C000FEF7A0FA014B2046236010BD3C0F0308F3
:1056D00000220260027170477047704704387047BB
:1056E000704710B50446102127F048FC204610BD35
:1056F000A0F10400F5E700000022C1608260044AC6
:1057000010B502F1080420320460426010BD00BFF1
:10571000680F030870477047F0B50546A9B0FEF75B
:1057200080FD002405F5005301268022254983F8D9
:10573000016B08A885F8644C072727F0CFFC2046AA
:1057400028F0A4F928F0AEF820222146684627F078
:10575000D3FC28F0D5F8424200F01F0302F01F02EC
:1057600058BF534203F1A0026A4412F8A01C00295A
:10577000EFD128A902F8A06C04F0070201EB830323
:1057800053F8801C930003EBE403013491FBF7F022
:1057900005EBC30203F65C23202C02F5005205EB57
:1057A000830382F8F909C0EBC000A1EB0001C1F14D
:1057B000060182F8F8195B68C2F8F439C9D129B03A
:1057C000F0BD00BF58E6020810B5044642F66C3141
:1057D00027F0D4FB204610BDF8B50446FEF7BAFF0B
:1057E0005B4B002104F5B86204F52B50236004F5EF
:1057F00000533430FF25C3F8742904F5EC62C3F874
:10580000782904F51062C3F87C2904F52A62C3F8EC
:10581000802904F2F452C3F8842904F29472C3F884
:10582000882904F63412C3F88C2904F6D422C3F86C
:10583000902904F5C562C3F8942904F5F962C3F808
:10584000982904F66812C3F89C2904F60832C3F8B4
:10585000A02904F25C62C3F8A42904F2FC72C3F824
:10586000A82904F69C12C3F8AC2904F63C32C3F80C
:10587000B02904F5D262C3F8B42904F50362C3F871
:10588000B82904F51D62C3F8BC2904F53762C3F8D2
:10589000C02904F2C462C3F8C42904F66402C3F840
:1058A000C82904F60422C3F8CC2904F6A432C3F8AC
:1058B000D02904F5DF62C3F8D42904F69802C3F8AE
:1058C000D82904F63822C3F8DC2904F6D832C3F804
:1058D000E02904F22C72C3F8E42904F6CC02C3F8E0
:1058E000E82904F66C22C3F8EC2904F60C42C3F84C
:1058F000F02904F52752343202F1200611600832F3
:1059000002F8045C02F8031C02F8021CB242F5D152
:105910009042F1D10F4A03F64436C3F8F41A02F16B
:105920002007C3F8F81AC3F8FC1AC3F8001B106864
:10593000083252F8041C3546BA4203C52E46F6D149
:1059400000222046C3F8642BC3F8682BF8BD00BFC3
:10595000980F0308D8E6020802EB8103F0B500EBCC
:10596000C30300F5005503F50053D5F8F46A93F826
:10597000F9497779A7423DD0D5F8F84A96F90460FD
:10598000671AD5F8FC5A012F01D0013701D1AA427C
:1059900006D0AF1A012F01D0013711D1A1420FD18A
:1059A00093F9F8399E4205DA56B9062B14BF002048
:1059B000012004E0062E34D1181E18BF0120F0BDCE
:1059C000012E17D1AA4213D10A460023A24226D0A3
:1059D00005EB820606F23E5600EBC606B67A012EAD
:1059E00008BF0133A142B4BF013202F1FF32EDE73B
:1059F000A14201D00020E2E71446002389000E19DD
:105A000006F23E5600EBC606B67A012E08BF0133F9
:105A1000AA42B4BF013404F1FF34AC42EFD1022BEF
:105A2000C4E70120CBE700F5005010B5D0F8F84AE4
:105A3000D0F8FC3A601A012802D0B0F1FF3F01D142
:105A40009A4208D09A1A012A01D0013205D10B1BC3
:105A50005842584110BD0120FCE70020FAE70068D9
:105A6000002380F8323003685B6918470068FF2321
:105A700080F8323003685B6918470000531CF0B5AA
:105A800005468BB00C4616462AD0164B03AA03F1E6
:105A9000180C1868083353F8041C1746634503C7ED
:105AA0003A46F6D1186838602846FFF7DFFF2868C5
:105AB000C4EBC40102AA03688C1901A99F6E0AAB4A
:105AC00003EB440434F81C3CADF80430ADF8083066
:105AD000B847286803685B690BB0BDE8F040184719
